:020000040800F2
:10000000A81F0020E10100088B1F0008EF1B00085B
:10001000891F000871020008DF26000800000000A8
:10002000000000000000000000000000490100087E
:100030008D020008000000008D010008CD2000089E
:10004000FB010008FB010008FB010008FB010008A0
:10005000FB010008FB010008FB010008FB01000890
:10006000FB010008FB010008FB010008FB01000880
:10007000FB010008FB01000875020008810200086E
:10008000FB010008FB010008FB010008FB01000860
:10009000FB010008FB010008FB010008FB01000850
:1000A000FB010008FB010008FB010008FB01000840
:1000B000FB010008FB010008FB010008FB01000830
:1000C000FB010008FB010008FB010008FB01000820
:1000D000FB010008F9230008FB010008FB010008F0
:1000E000FB010008FB010008FB010008FB01000800
:1000F000FB010008FB010008FB010008FB010008F0
:10010000FB010008FB010008FB010008FB010008DF
:10011000FB010008FB01000859210008FB01000851
:10012000FB010008FB010008FB010008FB010008BF
:10013000DFF810D000F08AF800480047692700086F
:10014000AFF30080A81F0020224B19680868B0E8B0
:10015000F00F80F30988BFF36F8F4FF0000080F33A
:1001600011884EF00D0E7047000000000648006830
:10017000006880F3088862B661B6BFF34F8FBFF3A3
:100180006F8F00DF00BF00BF08ED00E0EFF30980D4
:10019000BFF36F8F0F4B1A6820E9F00F106008B59E
:1001A0004FF0500080F31188BFF34F8FBFF36F8F74
:1001B00003F0FAFB4FF0000080F31188BDE808401F
:1001C00019680868B0E8F00F80F30988BFF36F8FF3
:1001D000704700BF38000020EFF305807047000033
:1001E0000648804706480047FEE7FEE7FEE7FEE7D1
:1001F000FEE7FEE7FEE7FEE7FEE7FEE75721000821
:100200003101000840EA01039B0703D009E008C957
:10021000121F08C0042AFAD203E011F8013B00F8CB
:10022000013B521EF9D27047D2B201E000F8012B17
:10023000491EFBD270470022F6E710B513460A4666
:1002400004461946FFF7F0FF204610BD064C074D47
:1002500006E0E06840F0010394E807009847103496
:10026000AC42F6D3FFF768FF384900085849000848
:10027000FEE77047014800F067B90000480200201F
:10028000014800F061B9000004020020704772B616
:10029000FEE770B5040003D094F8200010B104E02C
:1002A000012070BD204600F081F82068016841F00F
:1002B0000101016000F0B0FB0546052604E000F0F6
:1002C000ABFB401B0A2811D820684068C007F6D055
:1002D0002068016821F00201016000F09DFB0546E5
:1002E0000BE000F099FB401B0A2806D9606A40F435
:1002F0000030606284F82060D2E7206840688007A0
:10030000EFD4207E0128206801683DD021F08001D3
:100310000160607E01282068016838D021F040012A
:100320000160A07E01282068016833D021F02001FF
:100330000160E07E0128206801682ED041F01001A4
:100340000160207F01282068016829D021F0080180
:100350000160607F01282068016824D021F0040139
:100360000160D4E902010843D4E9041211430843AF
:100370006168491E08432168C8610020606201204D
:1003800084F82000002070BD41F08001C0E741F0FA
:100390004001C5E741F02001CAE721F01001CFE795
:1003A00041F00801D4E741F00401D9E710B586B067
:1003B0000021009101910291039100681349884244
:1003C00022D11348C16941F00071C161C16901F0D6
:1003D00000710491816941F00401816180690D4CD3
:1003E00000F0040004904FF400600090694620463D
:1003F00000F00CFAA014009002200190032003905A
:100400006946204600F002FA06B010BD00640040C4
:1004100000100240000801402DE9F05F90F8211023
:100420000024022903D004218163012485E00168AE
:100430000A6822F00E020A6001680A6822F00102CE
:100440000A603F4E3E4FB215DFF8F4C0DFF8F0907F
:10045000DFF8ECA0DFF8E8B0DFF8E4E00168783F0F
:1004600013011502ACF1640CA9F15009AAF13C0A80
:10047000ABF1280BAEF1140E4FF48018B14227D91E
:10048000B9420ED0614512D049451DD0514518D012
:10049000594518D0714501D1424615E0294EB14267
:1004A00001D1012210E0274E1436B14201D11022B1
:1004B0000AE0244E2836B14206D0224A3C3291420C
:1004C00001D11A4600E02A461E49091F0A602BE0A6
:1004D000B94213D0614517D0494522D051451DD0AE
:1004E00059451DD0714501D142461AE0B14202D1B1
:1004F0004FF0807215E0134EB14201D1012210E09D
:10050000104E1436B14201D110220AE00D4E2836A9
:10051000B14206D00B4A3C32914201D11A4600E06A
:100520002A46074980394A60012180F821100021BC
:1005300080F82010416B01B188472046BDE8F09F4C
:1005400080000240080402402DE9F05FC16B0A6898
:1005500001680B68046C4FF0040808FA04F8844D35
:10056000844E854FDFF814C2DFF81492DFF814A22E
:10057000DFF814B2DFF814E218EA020F65D05FEA80
:10058000437862D50A68920603D40A6822F004020E
:100590000A60DFF8F0814FF48062016808F1140806
:1005A00013011402414524D9A9420DD0B1420FD004
:1005B000B9421AD0614515D0494515D0514501D1F0
:1005C000120312E0594501D104220EE0714501D118
:1005D00040220AE06D4D1435A94206D06B4A2832FC
:1005E000914201D11A4600E022466749091F0A607C
:1005F00029E0A94213D0B14215D0B94220D06145BB
:100600001BD049451BD0514502D14FF4800217E061
:10061000414502D14FF0806212E0594501D10422D8
:100620000EE0714501D140220AE0584D1435A9422F
:1006300006D0564A2832914201D11A4600E022469D
:100640004B4908394A60C16A71E04FF0020808FA64
:1006500004F818EA020F70D05FEA83786DD50A6853
:10066000920606D40A6822F00A020A60012180F884
:100670002110DFF810814FF40072016808F11408AE
:1006800013011402414524D9A9420DD0B1420FD023
:10069000B9421AD0614515D0494515D0514501D10F
:1006A000120312E0594501D102220EE0714501D139
:1006B00020220AE0354D1435A94206D0334A2832AB
:1006C000914201D11A4600E022462F49091F0A60D3
:1006D00029E0A94213D0B14215D0B94220D06145DA
:1006E0001BD049451BD0514502D14FF4001217E0F1
:1006F000414502D14FF0007212E0594501D102226A
:100700000EE0714501D120220AE0204D1435A942A6
:1007100006D01E4A2832914201D11A4600E02246F4
:10072000134908394A60002180F82010816A0029A5
:100730001CD0BDE8F05F0847FFE70825A54015423B
:1007400014D01A0712D50A6822F00E020A6090F837
:100750004020C36B012101FA02F25A60816380F8E4
:100760002110002180F82010016BE0E7BDE8F09F28
:10077000080002401C0002403000024044000240D9
:10078000580002406C000240080402401C04024071
:1007900030B560B11A4B026814219A4209D2194B44
:1007A0001344B3FBF1F18900016417490AE0012009
:1007B00030BD134B5B421344B3FBF1F1890001647C
:1007C0000F490839C163022180F82110136843F6EC
:1007D000F0718B43F0E901142143D0E902452C4329
:1007E0002143046921434469214384692143194316
:1007F000116000214163012242770177084630BD34
:1008000008040240F8FFFDBF000002402DE9F84F48
:10081000DFF8C8910024A9F1040B23460F2709F142
:10082000040AABF1040ED1E00125A54006EA050259
:10083000AA4276D1DFF8A8C14E68A6EB0C0866453F
:100840002BD00DDC032E34D005DC36B3012E19D0AD
:10085000022E2FD11BE0112E16D0122E2AD119E014
:10086000B8F5881F19D006DCB8F5803F15D0B8F56B
:10087000801F1FD111E0B8F5001F0ED0B8F5041F7E
:1008800018D10AE0CB6815E0CB681B1D12E0CB68DD
:1008900008330FE0CB680C330CE08B682BB1012BD5
:1008A0004FF0080303D0456104E0042302E0056132
:1008B00000E00023FF2A01D8064601E000F104060B
:1008C0004FEA840501D9A5F12005D6F8008007FA82
:1008D00005FC28EA0C0803FA05F548EA0508C6F8FD
:1008E00000804D68ED0070D53E4DAE6946F00106C2
:1008F000AE61AD6924F0030605F0010500953A4D9F
:1009000006EB050CDCF80850A607360F07FA06F8C8
:1009100025EA0805DFF8D480404503D14FF00008F0
:1009200025E052E0DFF8C880404502D14FF00108D1
:100930001DE0DFF8C080404502D14FF0020816E00C
:10094000DFF8B480404502D14FF003080FE0DFF834
:10095000AC80404502D14FF0040808E0DFF8A080E9
:10096000404502D14FF0050801E04FF0060808FAB3
:1009700006F848EA0508CCF808804D68D9F8006008
:10098000ED024D4601D5164300E096432E604D68BA
:10099000DAF80060AD02554601D5164300E09643F3
:1009A0002E604D68DBF80060AD035D4601D516434F
:1009B00000E096432E604D68DEF80060ED0375465A
:1009C00001D5164300E096432E60641C0A68164663
:1009D000E2407FF429AFBDE8F88F00000804014031
:1009E000000011100010024000000140000801400A
:1009F000000C0140001001400014014000180140AB
:100A0000001C01408068084000D0012070470AB1F6
:100A1000016170470904FBE70148806870470000E6
:100A20002800002070B5040025D094F83D00002572
:100A300020B984F83C50204600F0B8F8242084F80F
:100A40003D002068016821F0010101602068016813
:100A500041F4004101602068016821F40041016017
:100A600000F052FA4D4A6168914201D84C4900E0C9
:100A70004C49884201D2012070BD4B492368B0FB2C
:100A8000F1F15E6826F03F060E435E6063689342B4
:100A900006D94FF4967359434FF47A73B1FBF3F1CF
:100AA0002368491C1E6A26F03F06314319626168BB
:100AB000914210D84900401EB0FBF1F2521CC2F323
:100AC0000B02042A01D2042022E0B0FBF1F0401C0A
:100AD000C0F30B001CE0A268F2B301EBC10303EB0F
:100AE0000116431EB3FBF6F35B1C43F480431B0566
:100AF00049D092B301EBC10202EB0111401EB0FBE1
:100B0000F1F0401CC0F30B0040F4804040F4004082
:100B10002168CA694CF6FF739A431043C861D4E94F
:100B2000071001432068026822F0C00211430160EF
:100B3000D4E9030101432068826848F2FF339A43F5
:100B400011438160D4E9050108432168CA6822F095
:100B5000FF021043C86001E00EE016E02068016863
:100B600041F0010101602564202084F83D002563E7
:100B700084F83E50002070BD01EB4106431EB3FBDC
:100B8000F6F35B1CB3E70120C2E701EB4101401E15
:100B9000B0FBF1F0401CC0F30B00B7E7A0860100EA
:100BA00080841E0000093D0040420F0010B586B051
:100BB0000021009101910291039100680F49884240
:100BC0001AD10F4CA06940F00800A061A0696946E5
:100BD00000F008000490C020009012200190032033
:100BE00003900848FFF712FEE06940F40010E0614E
:100BF000E06900F40010049006B010BD00540040FD
:100C000000100240000C0140024881680278114443
:100C10008160704728000020074810B5016841F046
:100C200010010160032000F0A7F80F2000F006F883
:100C300000F050F8002010BD0020024030B50546FD
:100C40001F4887B0C16941F01001C161C06906A9A0
:100C500000F01000009001A800F036F90498B0B13F
:100C600000F052F940001749174AB0FBF1F117485C
:100C7000491E0260416040F2E7320021C0E90321D1
:100C80008160816100F080FB040003D015E000F07A
:100C90003BF9E8E70D4800F0C3FB04000DD1362016
:100CA00000F03CF8102D07D200222946362000F033
:100CB00043F80748056000E0012407B0204630BD36
:100CC0000010024040420F00001000408C02002043
:100CD0002C0000200F4808B5816941F001018161B5
:100CE000816901F001010091C16941F08051C16148
:100CF000C069002200F0805000900F21901E00F08B
:100D00001BF80548416821F0E06141F00071416045
:100D100008BD00000010024000000140002809DB6F
:100D200000F01F02012191404009800000F1E02005
:100D3000C0F8001170470000F0B40E4B1B680C4661
:100D4000C3F30223C3F10705042D00D90425191D9F
:100D5000072901D2002300E0DB1E012606FA05F177
:100D6000491E214099409E40761E16403143F0BCFA
:100D700001F0BEBC0CED00E0064900F00702086877
:100D80004FF6FF03184040EA0220034A1043086070
:100D9000704700000CED00E00000FA052DE9F04777
:100DA0000F46050061D0434E306800F00700B8429E
:100DB00009D2306820F0070038433060306800F016
:100DC0000700B84251D128683B4C810712D5400733
:100DD00003D5606840F4E06060602878000703D5C0
:100DE000606840F4605060606068A96820F0F000BE
:100DF000084360602878C00728D06868012810D0B0
:100E00002168022810D0890700292EDA616821F0B4
:100E1000030101436160FFF7FFFD804641F288391D
:100E20000DE021688903EFE78901EDE7FFF7F4FDA5
:100E3000A0EB0801494502D90320BDE8F0876068AE
:100E4000696800F00C00B0EB810FEFD1306800F062
:100E50000700B8420BD9306820F0070038433060F3
:100E6000306800F00700B84201D00120E5E728789B
:100E7000400705D56068E96820F4E06008436060D9
:100E80002878000706D56068296920F4605040EA98
:100E9000C100606000F058F86168084AC1F30311AE
:100EA000515CC8400649086006480068FFF7C6FE66
:100EB0000020C2E7002002400010024096480008CF
:100EC000340000202C0000200F2202600C4A5368DE
:100ED00003F003034360536803F0F0038360536837
:100EE00003F4E063C36052684FF4E06303EAD202A4
:100EF00002610448006800F00700086070470000C5
:100F0000001002400020024004480549006849687A
:100F1000044AC1F30221515CC840704734000020EC
:100F200000100240A64800080448054900684968C6
:100F3000044AC1F3C221515CC8407047340000200C
:100F400000100240A64800080E4A51680E4801F001
:100F50000C03042B11D0082B0FD10C48C1F3834391
:100F6000C903C05C0AD55168084AC1F34041921ECA
:100F7000515C054A5043B0FBF1F0704704494843C7
:100F8000704700000010024000127A0086480008F6
:100F900000093D002DE9F84F040070D02078C04DC5
:100FA000C00749D06868C0F38100012807D068688D
:100FB000C0F38100022809D16868C00306D52868FB
:100FC000800339D560680028E7D035E06068B0F567
:100FD000803F0BD010B1B0F5A02F11D0286820F4BD
:100FE00080302860286820F4802002E0286840F4DF
:100FF00080302860606890B1FFF70EFD06460AE079
:10100000286840F480202860F0E700BFFFF704FD67
:10101000801B642873D828688003F7D50CE0FFF79D
:10102000FBFC064605E000BFFFF7F6FC801B6428CA
:10103000F0D828688003F7D420789A4E80074FF0C4
:1010400001094FF0000839D5686810F00C0F07D07F
:101050006868C0F38100022809D16868C00306D41B
:101060002868800714D52069012808D110E020697C
:10107000B0B1C6F80090FFF7CFFC074605E00AE1E3
:10108000FFF7CAFCC01B0228C4D828688007F7D520
:101090002868616920F0F80040EAC10028600DE08E
:1010A000C6F80080FFF7B8FC074604E0FFF7B4FC81
:1010B000C01B022823D828688007F7D420780007AF
:1010C0002CD57948A169D9B1C0F80090FFF7A4FCEC
:1010D000074604E0FFF7A0FCC01B02280FD8686A8F
:1010E0008007F7D571484FF4FA510068B0FBF1F072
:1010F000009000BF0098411E0091FAD20EE080E0FF
:10110000C0F80080FFF788FC074604E0FFF784FC86
:10111000C01B022875D8686A8007F7D4207840077A
:1011200060D5E8690027C00008D4E86940F0805025
:10113000E861E869012700F0805000905C48016890
:10114000C90513D40168834641F480710160FFF73B
:1011500063FC824606E000BFFFF75EFCA0EB0A00DE
:1011600064284ED8DBF80000C005F5D5E0680128FA
:101170000AD008B1052813D0286A20F0010028629F
:10118000286A20F0040002E0286A40F0010028628A
:10119000E06841F2883B98B1FFF73EFC82460BE0E5
:1011A000286A40F004002862EEE700BFFFF734FC35
:1011B000A0EB0A0159455AD8286A8007F6D50CE0F9
:1011C000FFF72AFC824605E0FFF726FCA0EB0A01A8
:1011D00059454CD8286A8007F6D41FB1E86920F039
:1011E0008050E861E06988B36968C1F38101022930
:1011F00044D00228C6F8608004D0FFF70DFC0446F6
:1012000038E034E0FFF708FC074604E0FFF704FC91
:10121000C01B02282BD828688001F7D4206AB0F5BB
:10122000803F05D16868A16820F4003008436860F9
:10123000D4E908010843696821F47411084368601F
:10124000C6F86090FFF7E8FB044606E025E000BF23
:10125000FFF7E2FB001B022809D828688001F7D5B8
:101260001BE000BFFFF7D8FB001B022802D90320B8
:10127000BDE8F88F28688001F4D40EE00128F7D08B
:101280006868226A00F48031914204D1616A00F4F6
:101290007010884201D00120EAE70020E8E7000052
:1012A000001002400000424280044242340000200C
:1012B000007000407047704710B590F83C20012A3C
:1012C00022D0012280F83C20CA688C6822F4407247
:1012D00022434C6822F4806222430C6822F40062AC
:1012E00022430C6922F4805222434C6922F40052BA
:1012F0002243C969002322F480420A4301684A64F8
:1013000080F83C30002010BD022010BD70B590F870
:101310003C20012A2CD0012480F83C40022280F895
:101320003D2003685A689D6822F070060A683243BF
:101330005A60104B02689A420ED00F4B9A420BD063
:10134000B2F1804F08D00D4B9A4205D00C4B9A4217
:1013500002D00C4B9A4204D1496825F0800319430E
:10136000916080F83D40002180F83C10084670BD37
:10137000022070BD002C01400034014000040040F8
:1013800000080040000C004010B5040003D094F8A1
:101390003D0010B107E0012010BD002084F83C00A2
:1013A000204600F01FF8022084F83D00211D20682F
:1013B00000F0D8FE012084F8460084F83E0084F84E
:1013C0003F0084F8400084F8410084F8420084F82B
:1013D000430084F8440084F8450084F83D00002070
:1013E00010BD000008B50C4A01680C48914207D1B5
:1013F000816941F400618161806900F4006009E065
:10140000B1F1804F07D1C16941F00101C161C069EB
:1014100000F00100009008BD002C014000100240C7
:1014200090F83D10012901D001207047022180F879
:101430003D100168CA6842F00102CA6000680E49A6
:1014400088420ED00D4988420BD0B0F1804F08D0B1
:101450000B49884205D00B49884202D00A4988428C
:1014600004D1816801F00701062903D0016841F029
:101470000101016000207047002C01400034014050
:101480000004004000080040000C004070B5044615
:1014900090F83C000025012817D0012684F83C6014
:1014A000022084F83D002068826822F0770222F44E
:1014B0007F4282600868502838D00DDC20284FD049
:1014C00005DC90B3102811D14AE0022070BD30280D
:1014D00046D040280AD13BE060282FD070280DD09C
:1014E000B0F5805F03D0B0F5005F12D0012584F81D
:1014F0003D60002084F83C00284670BDCB68D1E9EF
:101500000121206800F074FE2068816841F07701B5
:1015100009E0CB68D1E90121206800F069FE20686C
:10152000816841F480418160E1E719E0CA68496857
:10153000206800F031FF5021206806E0CA68496841
:10154000206800F03AFF6021206800F05BFECEE7E3
:10155000CA684968206800F01FFF40212068F4E74E
:10156000226801461046F0E7704770B504460068EF
:1015700001694FF00005C943890715D4C168C94303
:10158000890711D4E91E0161012020772068806954
:101590008007204602D0FFF7E7FF04E000F0CAF81A
:1015A000204600F05CF9257720680169C9434907A6
:1015B00017D4C168C943490713D46FF0040101610E
:1015C000022020772068806910F4407F204602D0F6
:1015D000FFF7CAFF04E000F0ADF8204600F03FF945
:1015E000257720680169C943090716D4C168C94332
:1015F000090712D46FF008010161042020772068E8
:10160000C0698007204602D0FFF7AEFF04E000F07B
:1016100091F8204600F023F9257720680169C94335
:10162000C90617D4C168C943C90613D46FF01001A5
:101630000161082020772068C06910F4407F2046AF
:1016400002D0FFF791FF04E000F074F8204600F0AC
:1016500006F9257720680169C943C90708D1C1681F
:10166000C943C90704D1891E0161204600F0F8F87A
:1016700020680169C943090609D4C168C94309063C
:1016800005D46FF0800101612046FFF713FE20684A
:101690000169C943490609D4C168C943490605D44B
:1016A0006FF040010161204600F0E4F82068016914
:1016B000C94389060BD4C168C943890607D46FF0B2
:1016C000200101612046BDE87040FFF7F4BD70BD08
:1016D00000B585B00021009101910291039100684D
:1016E000104988421BD11048816941F04001816155
:1016F0008069694600F0400004904FF4007000904B
:101700000220019003900948FFF780F808484168DB
:1017100021F0C00141F0E06141F0C001416005B03D
:1017200000BD0000002C01400010024000180140E4
:1017300000000140704770B5044690F83C00002658
:101740000D4601280FD0012084F83C006AB1042A1C
:101750001DD0082A2FD00C2A3FD00126002084F863
:101760003C00304670BD022070BD206800F052FD84
:101770002068816941F0080181612068816921F058
:1017800004018161206881692A69114311E02068A0
:1017900000F070FD2068816941F40061816120687A
:1017A000816921F480618161206881692A6941EA47
:1017B00002218161D2E7206800F092FD2068C169B2
:1017C00041F00801C1612068C16921F00401C161D3
:1017D0002068C1692A69114311E0206800F0B4FD56
:1017E0002068C16941F40061C1612068C16921F4C8
:1017F0008061C1612068C1692A6941EA0221C16131
:10180000ACE710B5040003D094F83D0010B107E038
:10181000012010BD002084F83C00204600F01EF896
:10182000022084F83D00211D206800F09BFC01206F
:1018300084F8460084F83E0084F83F0084F84000B5
:1018400084F8410084F8420084F8430084F844009E
:1018500084F8450084F83D00002010BD70477047B3
:1018600000680349884201D1FFF7CEB970470000F4
:10187000001000407047704770B502680446106859
:10188000D168536910F00F0F56D003F0010501F431
:1018900090762E436AD0C20705D0CA0503D5226CC4
:1018A00042F001022264420705D5DA0703D0226C18
:1018B00042F002022264820705D5DA0703D0226CC7
:1018C00042F004022264020707D501F020022A43F5
:1018D00003D0226C42F008022264226C002A3ED01F
:1018E000800608D5880606D594F83D0022282046B3
:1018F0002FD000F04FFE20684069216CC0F38010AB
:10190000090700D460B3204600F084FD20684169D7
:10191000490621D5416921F040014161A06BD8B150
:1019200038494163A06BFEF777FD002817D0A06B04
:10193000416BBDE870400847830617D58B0615D567
:1019400094F83D00222819D12046BDE8704000F0EF
:101950006FBD00F06DFDCEE72046FFF78CFF70BD38
:101960002046FFF788FF0020206470BD030634D5B1
:101970000B0632D594F83D00122804D02046BDE86D
:10198000704000F007BE94F83D001228EDD1A06829
:10199000B0F5805F01D12069B0B1606A411C61621D
:1019A000216800784860608D401E0004000C60854E
:1019B000DBD12068C16821F08001C1602068C16866
:1019C00041F04001C16070BD606A0088C0F308004A
:1019D0005060606A801C6062E5E74006F3D5480607
:1019E000F1D5D168204621F04001D16021684A69D3
:1019F00022F001024A61012184F83D1000F0F5F85F
:101A000070BD00000524000870B5040004D094F8EF
:101A10003D00002510B106E0012070BD84F83C5067
:101A2000204600F01BF8022084F83D00204600F01C
:101A300047FD2068016921F4804101612068416906
:101A400021F02A0141612068C16841F40051C16060
:101A50002564012084F83D00002070BDF0B585B0FC
:101A600000240646009401940294039400682D49D2
:101A7000884254D12C48816941F480418161816957
:101A800001F480410491816941F004018161806920
:101A9000264D00F0040004904FF4407000900220A6
:101AA00001900320039069462846FEF7AFFE2815F3
:101AB000CDE90004694628460294FEF7A7FE1D4DB5
:101AC0001B488027C5E90004C5E902472C616C6109
:101AD000AC612846EC61FEF75BFE08B1FEF7D7FB70
:101AE000B5636E62134D12484435143801C5102099
:101AF00091C5104845F8104944306C61AC61EC6107
:101B0000FEF746FE08B1FEF7C2FB75630022052111
:101B100025206E62FFF710F92520FFF7FFF805B0CA
:101B2000F0BD0000003801400010024000080140F4
:101B3000580002400402002070472DE9F84F044687
:101B400090F83D001F4616460D4601284BD1CDB1F9
:101B5000C6B194F83C00012845D04FF0010884F844
:101B60003C804FF00009C4F84090122084F83D00FA
:101B7000FEF752FF268582466685A068B0F5805F35
:101B800003D004E00120BDE8F88F206910B12E4693
:101B900000250EE000260CE08021204600F065FDC7
:101BA000A0B9AEB116F8010B21684860608D401EE7
:101BB0006085608D53464FF0000200970028EBD1FE
:101BC0004FF04001204600F050FD30B10320DAE72D
:101BD00035F8020BC0F30800E6E784F83D8084F88E
:101BE0003C900020CFE70220CDE770477047FEE72A
:101BF0000E4810B50C4901601021416000214FF4DE
:101C0000C0228160C0E9031241610176417681768C
:101C1000C17601774177FEF73CFB002803D0BDE891
:101C20001040FEF734BB10BD00640040B40000203B
:101C30000D4808B5416941F0010141614069002248
:101C400000F00100009005210E20FFF775F80E202E
:101C5000FFF764F8002205210F20FFF76DF8BDE8BB
:101C600008400F20FFF75AB80010024010B5214875
:101C700000F07CFE204C60611E48103000F076FEC3
:101C80001C4AA06120320021012000F0DDFE194A2B
:101C90000221E0613032084600F0D6FE154B20628A
:101CA000103B00220121154800F078FF114A206105
:101CB000283A0221102000F0E9FD0E4AE060943A33
:101CC00000210F4800F018FF0A4A2060703A0021F6
:101CD0000C4800F011FF074A60604C3A00210A48A6
:101CE00000F00AFFA0600348403000F071FD606220
:101CF00010BD0000344800080000002073020008F6
:101D00008D1F0008A9200008D51F00082DE9F04309
:101D100085B000252E4800950195029503958169AF
:101D200041F040018161816901F0400104918169C4
:101D300041F004018161816901F00401049181692C
:101D400041F0080181618069224F00F00800049091
:101D5000002220213846FEF75AFEDFF87C9001224F
:101D600020214846FEF753FE4FF48078002241467A
:101D70004846FEF74CFE1820CDE9000501246946CF
:101D800002943846FEF742FD20260096CDE9014533
:101D9000694638460394FEF739FD02278DE8B00006
:101DA00069460E48FEF732FD0096CDE901456946C9
:101DB00048460394FEF72AFD01AACDF8008082E888
:101DC000B00069464846FEF721FD05B0BDE8F08346
:101DD0000010024000180140000C014000080140C2
:101DE0000D4810B50B4901600C49416000214FF4CA
:101DF00080428160C0E9031241618161C161016279
:101E0000FEF710FE002803D0BDE81040FEF73FBAF1
:101E100010BD000000540040DC000020A08601003E
:101E200010B596B000240F9410941194129413944A
:101E30001C2108A81494FEF7FEF920216846FEF73D
:101E4000FAF92848264901602321C0E901146321D9
:101E5000C0E9031444618461FFF796FA08B1FEF704
:101E600016FA4FF480500F900FA91E48FFF70EFB93
:101E700008B1FEF70CFA1B48FFF7C3FC08B1FEF7E8
:101E800006FA139413A917481494FFF73FFA08B100
:101E9000FEF7FDF96020CDE908040A940B940C9438
:101EA0000D94002208A90F480E94FFF744FC08B1D6
:101EB000FEF7EDF900944FF40050CDE90440029490
:101EC00001940394694607480794FFF7F5F908B1B0
:101ED000FEF7DDF90348FFF7FBFB16B010BD00006D
:101EE000002C01403001002010B586B000241648B7
:101EF000009401940294039404944FF0804105945B
:101F000001604721C0E901146321C0E90314846121
:101F1000FFF73AFA08B1FEF7BAF94FF48050009093
:101F200069460948FFF7B2FA08B1FEF7B0F9049420
:101F300004A905480594FFF7E9F9002801D0FEF748
:101F4000A6F906B010BD0000780100200D4810B5BC
:101F50000B4901604FF4E1314160002181600C22A6
:101F6000C160C0E904128161C1610162FFF74CFDEB
:101F7000002803D0BDE81040FEF789B910BD00006D
:101F800000380140C0010020FEE7FEE70C4D4FF491
:101F90007A740CA000F0A4FB002220212846FEF752
:101FA00036FD204600F0FAFB012220212846FEF7EC
:101FB0002EFD204600F0F2FB012000F0EFFBE8E7E9
:101FC000000C014044656661756C745461736B0A62
:101FD00000000000234D244C08212046FEF712FD8E
:101FE00001283BD1642000F0D9FB08212046FEF7F0
:101FF00009FD012832D101F0CFFC1CA000F070FBDC
:1020000002F0D6FA4FF0FF31686900F079FCA0B118
:1020100001F0C2FC18A000BF00F062FB02F0C8FA99
:10202000686900F0E3FC60B101F0B6FC15A000BFE8
:1020300000F056FB02F0BCFA0AE001F0ADFC14A07F
:10204000EAE701F0A9FC15A0F2E7642000F0A6FB86
:1020500008212046FEF7D6FC0128F6D0012000F02A
:102060009DFBB9E700000020001801400AB0B4BC95
:10207000FCB3C9B9A60A00000ABBF1B5C3CAA7B030
:10208000DC0D0A000ACACDB7C5CAA7B0DC0D0A002C
:102090000ABBF1B5C3B3C9B9A60D0A000ACACDB7C8
:1020A000C5B3C9B9A60D0A0040F6B83404A000F0C3
:1020B00017FB204600F072FB012000F06FFBF5E7F4
:1020C0005461736B55736172740A000010B550202F
:1020D00080F31188BFF34F8FBFF36F8F02F050F979
:1020E00018B104494FF080500860002080F3118837
:1020F00010BD000004ED00E030B58FB02821684627
:10210000FEF799F814210AA8FEF795F801210804B2
:10211000CDE900100024029402250491CDE9075076
:102120004FF4E01009906846FEF734FF08B172B62C
:10213000FEE70F20CDE90A054FF48060CDE90C40A1
:1021400002210AA80E94FEF729FE002801D072B6DB
:10215000FEE70FB030BD70470148FFF706BA000038
:102160008C020020F0B502681C4B1D4D1D4E1E4F09
:102170001E4C4FF0804C984209D0A04207D06045D9
:1021800005D0A84203D0B04201D0B84204D122F019
:10219000700E4A6842EA0E02984209D0A04207D067
:1021A000604505D0A84203D0B04201D0B84203D167
:1021B00022F44075CA682A434D6922F080022A43FE
:1021C00002608A68C2620A688262984201D0A042B4
:1021D00001D10969016301214161F0BD002C014079
:1021E0000004004000080040000C004000340140A2
:1021F00010B5846842EA032224F47F440A43224350
:10220000826010BD826822F070020A4342F007012A
:1022100081607047F0B5036A026A22F0010202622F
:1022200042688469124E24F073050C682C4323F035
:1022300002058B682B430D4DA84201D0B04205D159
:1022400023F00807CB683B4323F00403A84201D0E6
:10225000B04205D14D6922F4407215438A692A4380
:1022600042608461496841630362F0BD002C014013
:1022700000340140F0B5026A036A23F010030362E0
:10228000436884690D6824F4E64444EA05248D68B3
:1022900022F0200242EA05120F4D104EA84201D052
:1022A000B04206D1CF6822F0800242EA071222F043
:1022B0004002A84201D0B04207D14D6923F44063E7
:1022C00043EA85038D6943EA850343608461496875
:1022D00081630262F0BD0000002C01400034014027
:1022E000F0B5026A036A23F4807303624368C46929
:1022F00022F4007224F073050C68124E2C438D6892
:1023000042EA05220E4DA84201D0B04206D1CF6864
:1023100022F4006242EA072222F48062A84201D03D
:10232000B04207D14D6923F4405343EA05138D6948
:1023300043EA05134360C4614968C1630262F0BDAA
:10234000002C01400034014030B5046A026A22F4D6
:10235000805202624268C3690D6823F4E64343EA8F
:1023600005238D6824F4005444EA0534084DA8423E
:1023700002D0084DA84204D14D6922F4804242EABD
:1023800085124260C36149680164046230BD000087
:10239000002C01400034014010B5036A046A24F0A7
:1023A00001040462846924F0F00444EA021423F076
:1023B0000A020A438461026210BD10B5036A046A0E
:1023C00024F010040462846923F0A00324F4704410
:1023D00044EA023243EA01118261016210BD10B584
:1023E00001F066F8002805D0D0E90021BDE81040D2
:1023F0000846104710BD00000148FFF73DBA000035
:10240000C001002010B5406A002141864185FFF7D8
:1024100032FA10BD0168CA6822F49072CA6001687D
:102420004A6922F001024A61012180F83D1070479B
:1024300010B590F83D10222901D0022010BD82680D
:102440004FF480539A4201D1016921B1C16A9A4285
:102450001ED04AB10AE00268C16A5268C2F308029B
:102460000A80C16A891C08E002698AB10268526860
:1024700002F07F020A70C16A491CC162418E491E86
:102480004186418E39B10068FF214160002010BDB6
:1024900002685268EEE70168CA6822F02002CA604A
:1024A0000168CA6822F48072CA6001684A6922F031
:1024B00001024A61012180F83D10FFF73DFBE5E78D
:1024C0002DE9F04104460068C16821F00C01C160AB
:1024D00020680169D4E906231A43E568236A21F4D8
:1024E0007C512B431A430A4342F400610161226884
:1024F000D16841F20C6081432369A0681843636985
:102500000B431843D0602068416921F44071416158
:102510001F49206864253226884202D1FEF704FD57
:1025200001E0FEF7F1FC00EBC00101EB0011606877
:102530006FF0180C8000B1FBF0F3B3FBF5F3B1FBC7
:10254000F0F7B1FBF0F203FB0CF307EB830306EBB0
:102550000313B2FBF5F2B3FBF5F3120103F0F00342
:1025600002EB4302B1FBF0F3B1FBF0F0B0FBF5F08E
:1025700000FB0CF003EB800006EB0010B0FBF5F065
:10258000216800F00F0010448860BDE8F081000071
:102590000038014010B590F83D10322901D00220DA
:1025A00010BD418D4FF4805311B301680A68D243C6
:1025B00012061DD482689A4201D1026952B1426A60
:1025C000541C446212784A60418D491E4185418DF8
:1025D00049B10DE0426A1288C2F308024A60416ABA
:1025E000891C4162F0E70168CA6822F08002CA6073
:1025F000418EF9B101680A68D24392061AD4826802
:102600009A4209D10269C2B9C26A4968C1F3080194
:102610001180C16A891C09E00AB902696AB1496876
:1026200001F07F01C26A1170C16A491CC162418E0A
:10263000491E4186418E11B115E04968F2E70168F3
:10264000CA6822F02002CA600168CA6822F4807257
:10265000CA6001684A6922F001024A61012180F8DA
:102660003D10FFF7C3FA002010BD2DE9F041984658
:1026700017460E460446069D25E0681C23D02DB162
:10268000FEF7CAF9A0EB0800A8421CD92068C1686F
:1026900021F08001C1602068C16821F02001C16083
:1026A0002068C16821F48071C1602068416921F00F
:1026B00001014161012084F83D00002084F83C00C4
:1026C0000320BDE8F0812068006836EA000004D0ED
:1026D0000020B842D1D00020F3E70120F9E7FEE75F
:1026E000014A024900F023B851270008B000002039
:1026F0000907090E002804DB00F1E02080F800142F
:10270000704700F00F0000F1E02080F8141D7047C2
:1027100002E008C8121F08C1002AFAD170477047AA
:10272000002001E001C1121F002AFBD170472DE9F2
:10273000F04116460F460446002503E03946B047EF
:10274000641C6D1C20780028F8D12846BDE8F08173
:1027500013B54FF6FF73012269460248FFF7EDF902
:1027600000981CBDC0010020FEF756FAFFF7C4FC1C
:10277000FFF7CCFAFFF75CFAFFF752FBFFF7B4FB69
:10278000FFF7E4FBFFF734FAFFF72AFB00F042F80B
:10279000FFF76CFA00F05AF8FEE7000010B5EFF30F
:1027A000058149B9EFF3108131B908490968022957
:1027B00005D1EFF3118111B16FF0050403E000249E
:1027C00008B100F0F5FF204610BD00008800002091
:1027D00010B54FF00001EFF30582BAB9EFF31082A4
:1027E000A2B90B4A1268022A02D1EFF311826AB928
:1027F00048B1D0E902202AB1202807D3104601F0C1
:1028000013F902E010B901F001F90146084610BDC4
:1028100088000020EFF3058058B9EFF3108040B92D
:1028200009490868022801D030B109E0EFF31180AE
:1028300030B16FF00500704701200860002070473C
:102840004FF0FF30704700008800002010B5EFF314
:10285000058060B9EFF3108048B90B490868022879
:1028600002D0012806D00BE0EFF3118040B16FF0E9
:10287000050010BD0220086001F04AF8002010BDDC
:102880004FF0FF3010BD000088000020F8B514465E
:102890004FF00005EFF305826ABBEFF3108252BBE5
:1028A000164A1268022A02D1EFF311821ABB10B342
:1028B00009B3ACB1D4E902326BB1502A1BD32269FF
:1028C000CAB1676900FB01F6B74214D30025009531
:1028D00001F08DF907E072B9226962B9626952B9F3
:1028E000002201F060F9050005D00CB1216800E07C
:1028F000002100F0FBFE2846F8BD00008800002003
:102900002DE9F0410D46014621F0010001F00101E1
:102910004FF00004EFF305824AB9EFF3108232B9A9
:10292000114A1268022A05D1EFF3118212B16FF039
:10293000050416E048B100296FF001066FF00207A8
:10294000294608D001F050FC07E06FF0030408E0CE
:1029500035B1344605E001F08BFB0128F8D100E0E9
:102960003C462046BDE8F0818800002070B5054651
:102970004FF00004EFF30580A0BBEFF3108088BB9D
:1029800019480068022802D1EFF3118050BB0DB145
:10299000686800E00020C10701D0012600E00026A1
:1029A00000071FD46DB1D5E9021021B1502819D309
:1029B0001EB1042002E020B114E0012001F0E6F88D
:1029C00005E00EB1042000E0012001F0D4F804007D
:1029D00008D00DB1296800E0002100F087FE0EB19B
:1029E00044F00104204670BD8800002070B5014607
:1029F00021F0010001F001014FF00004EFF3058226
:102A00004AB9EFF3108232B90E4A1268022A05D190
:102A1000EFF3118212B16FF0050411E028B16FF0ED
:102A2000020529B101F068FA07E06FF0030407E03E
:102A300000231A46194601F051F9012800D02C460E
:102A4000204670BD88000020F8B5144603460E46A7
:102A50004FF00005EFF30580E8BBEFF31080D0BB2B
:102A600024480068022802D1EFF3118098BB93B389
:102A70009E423DD84CB1A0680028E06803D05028A1
:102A800036D3012002E008B132E00020012B05D04E
:102A900010B31846A26801F04EF820E040B10320C0
:102AA0000090002211460120A36801F0A0F804E084
:102AB00003220021012001F076F8050018D086B12C
:102AC00000231A46194601F009F9012809D02846C1
:102AD00000F020FE00250BE0184601F00FF805007D
:102AE00006D00CB1216800E00021284600F0FEFD70
:102AF0002846F8BD88000020F0B585B04FEA0103F4
:102B00004FF00004EFF305810394A1BBEFF31081B4
:102B100089BB21490968022902D1EFF3118151BB18
:102B200048B3802618218DF8104004AD42B31768D1
:102B300007B13D4697691FB139467F1E382F02D233
:102B40001779FF0702D0002005B0F0BD576907B123
:102B5000BE08D2F808C0BCF1000F0DD0D4685C2CC0
:102B600018D312693AB137B18DE8061032462946BA
:102B700001F0C1FB03900DE0D7685FB912694AB953
:102B800003AACDE90012B2B2294601F087FB012861
:102B900000D003940398D7E7880000202DE9FC417A
:102BA0001C461746884606464FF00005EFF30580A1
:102BB00078BBEFF3108060BB17480068022802D191
:102BC000EFF3118028BB26B3082000F0F9FB0300C7
:102BD0001FD0B8F1000FC3E9006711D001220F4EDA
:102BE00000208CB1216801B10846A16851B1E468A8
:102BF000302C0ED3CDE90061012101F055FD07E035
:102C00000022ECE7E16821B90121009601F032FDD4
:102C100005462846BDE8FC8188000020DF23000827
:102C20002DE9F041134C0F46054666692068001DEA
:102C300000F062FC681C07D137B12168BDE8F041A3
:102C40000D48091D00F0A8BC20683544B542456018
:102C5000216805D2A068BDE8F041091D00F084BCE0
:102C60006068091D00F080FC206B854200D225635E
:102C7000BDE8F08138000020C40700202DE9F041B4
:102C8000054600F095FC2D4C2069401C2061206811
:102C90002B4F10B1E06930B32BE02560206901288B
:102CA00027D1002606EB860007EB800000F04EFCE3
:102CB000761C382EF6D3234800F048FC2148143007
:102CC00000F044FC1F48283000F040FC1D483C3018
:102CD00000F03CFC1B48503000F038FC19486060A4
:102CE0001430A06005E02068E96AC06A884200D814
:102CF0002560E06A401CE0626864E86AA169884275
:102D000000D9A06100EB800007EB8000291D00F0D6
:102D100043FC00F06DFCE06900280CD02068E96AF3
:102D2000C06A884207D208494FF080500860BFF35C
:102D30004F8FBFF36F8FBDE8F08100003800002097
:102D4000140300207407002004ED00E038B500F003
:102D50002FFC104CA068C8B90F4800F0F7FB0E48D4
:102D6000143000F0F3FB0C482060143060600A4B14
:102D700000202833009003F1500210210A2000F0B7
:102D800036FFA06010B105A100F0B0FCBDE83840EE
:102D900000F02EBC74000020D8070020546D725142
:102DA0000000000030B4026C0B46002A0BD0C16852
:102DB0001144C1604468A14201D30168C16030BCC4
:102DC0001846FDF71FBA30BC70472DE9F041856BFE
:102DD000174604460026026C82B1C7B1E068FDF7D1
:102DE00011FAE168206C091AE1602268914202D26E
:102DF0006168081AE060022F16D017E02068A8B9B1
:102E0000606801F021FB0646002060600EE0A068CB
:102E1000FDF7F8F9216CA0680844A0606168884259
:102E200004D32068A06001E005B16D1E6D1CA56390
:102E30003046BDE8F08110B5044690F8590058B10D
:102E400001280CD002280FD0502080F31188BFF346
:102E50004F8FBFF36F8FFEE7206B00F0DDFB204646
:102E6000BDE8104000F0D8BB10BD000010484FF482
:102E70004061420706D0C01D0D4920F00700411AED
:102E8000C1F540610B4A00230144C2E9000308393F
:102E9000103A21F0070111604B600B600B1AC0E97A
:102EA000001393604FF000405360D0607047000003
:102EB000A80F00209C000020144E154CA6F29C4741
:102EC0004FF08058DFF84C9012E000BF00F070FB2C
:102ED000F068C568281D00F00FFB2069401E2061C6
:102EE000E068401EE06000F083FB2846FFF7A3FF88
:102EF000E0680028EAD138680128F9D9C9F80080CB
:102F0000BFF34F8FBFF36F8FF2E70000B0070020D1
:102F10003800002004ED00E0002807D000214160C7
:102F200001600B460A46C16000F0D8BE7047000041
:102F300070B51D46049C51B1C4F80020C4E90F01CE
:102F40000121204600F086FE84F84C5070BD2460BC
:102F5000F4E72DE9F0470E46DDE90984174682467D
:102F600091009946089DA522206BFDF75DF96FF051
:102F70000301206B01EB8701084420F00707780765
:102F800007D0502080F31188BFF34F8FBFF36F8FAE
:102F9000FEE72218315C82F83410315C11B1401C1C
:102FA0001028F6D3002684F84360382D00D3372547
:102FB000E562C4E91356201D00F0D3FA04F11800AD
:102FC00000F0CFFA2461C5F138006462A061666543
:102FD00084F858604A465146384600F07BFA206033
:102FE000B8F1000F01D0C8F80040BDE8F0872DE926
:102FF000F0471E46DDE9089417460D0080460ED0C6
:10300000002C14D0FFF7A2FEC4F80080C4E90657D4
:10301000C4E90869201DBDE8F04700F0A2BA5020BD
:1030200080F31188BFF34F8FBFF36F8FFEE7BDE8CA
:10303000F087000030B5114900E011460A6882426D
:10304000FBD34B685C18844203D140681844486045
:10305000084643681C18944209D1084C103C246867
:10306000A24209D052681A4442600A68126802609B
:10307000814200D0086030BD0460F9E79C00002068
:1030800070B5002441600B4D0061914206D8D11A01
:103090008269914206D2011D686807E09A4203D214
:1030A000994201D3012403E0011D286800F05CFA75
:1030B000204670BD7400002010B5044600F078FA78
:1030C000A06B28B15FF0000400F092FA204610BD1A
:1030D0000124F9E730B589B0304D55E00498002857
:1030E00006DADDE90601059A9047049800284BDBD3
:1030F000069C606910B1201D00F0FEF902A800F0E6
:10310000B9F8024604980A283ED2DFE800F0050527
:10311000053D263705053D260598A169034601446E
:103120002046FFF7ADFF00B3616A20468847E0699B
:10313000012829D1002000900598A1690023421898
:103140001946204601F0F8FA78B9502080F311882A
:10315000BFF34F8FBFF36F8FFEE70598A06128B1D3
:10316000811813462046FFF78BFF0DE0502080F3B7
:103170001188BFF34F8FBFF36F8FFEE794F82C00D9
:1031800010B9204600F048FA002204A9A86800F00F
:10319000D3FE0028A2D109B030BD00007400002089
:1031A0002DE9FC410F46054600F0F6FB01A800F0B2
:1031B00061F80446019818B101F0FAF9BDE8FC8104
:1031C000224EAFB170680068A8B30027291B3A46A9
:1031D000B06800F0CBFA01F0EBF90028EED11C4901
:1031E0004FF080500860BFF34F8FBFF36F8FE5E75C
:1031F000A542EBD801F0DCF930682746C068C46806
:10320000201D00F079F9E069012810D1A0692B4652
:1032100041193A462046FFF733FF40B100200346EC
:10322000014600902A46204601F086FA20B1616AE4
:1032300020468847C2E707E0502080F31188BFF39B
:103240004F8FBFF36F8FFEE70127BFE774000020A9
:1032500004ED00E006484168096829B14168C96881
:10326000C9684968016370474FF0FF31FAE7000011
:103270003800002070B5054601F07CF8064E044683
:103280003069844203D200F009F8012000E00020F8
:1032900028602046346170BD74000020F8B5194DD7
:1032A0001FE0C068C4680668201D00F025F9616A47
:1032B00020468847E069012813D1A0693044B04214
:1032C00006D924616060211D286800F04DF908E0EE
:1032D00000200346014600903246204601F02CFAB9
:1032E00038B1286801680029DBD16968C5E9001098
:1032F000F8BD502080F31188BFF34F8FBFF36F8F5D
:10330000FEE700007400002008484068401C4FF0B1
:10331000500080F3118804D0BFF34F8FBFF36F8F3D
:10332000FEE7BFF34F8FBFF36F8FFEE7A4000020CF
:10333000074C2068016841B1C0680021D0F8000046
:10334000FFF72EFFFFF7C6FEF3E701210020F7E7A6
:10335000740000202DE9F041044600F029F994F9A9
:10336000455004F1240609E0606A48B1304601F096
:10337000E7F808B100F04AFA6D1E6DB2002DF3DCDB
:103380004FF0FF3684F8456000F032F900F010F994
:1033900094F9445004F1100709E0206948B1384617
:1033A00001F0CEF808B100F031FA6D1E6DB2002DBB
:1033B000F3DC84F84460BDE8F04100F019B9000086
:1033C0002DE9F0410546002700F0E6FA314E30685D
:1033D00008B9FFF74BFDF06805424BD1C5B308357E
:1033E00068070ED005F00700C0F108000544680723
:1033F00007D0502080F31188BFF34F8FBFF36F8F3A
:10340000FEE72DB37068854234D82248103001465B
:103410000C6801E020460C466168A94202D221688E
:103420000029F7D131688C4224D0076821680160F7
:1034300060680837411B10290FD96019420708D06E
:10344000502080F31188BFF34F8FBFF36F8FFEE7DB
:1034500010E041606560FFF7EDFD61687068401A3B
:103460007060B268904200D2B060F0680143002002
:10347000C4E9000101F09CF8780707D0502080F3E0
:103480001188BFF34F8FBFF36F8FFEE73846BDE85B
:10349000F08100008C0000200449086818B1086819
:1034A000026D521C02650868704700003800002059
:1034B00010B5040006D000F07BF8246A00F098F8FC
:1034C000204610BD502080F31188BFF34F8FBFF30B
:1034D0006F8FFEE710B5031F4FF080741C601B1F39
:1034E00021F001011960191F024B0B60143940389B
:1034F0000A6010BD09330008D0E9013201699A6001
:10350000D0E901235A604A68824201D182684A6048
:10351000002202610868401E0860086870470000C9
:10352000034B036003F15C0008608020106070476B
:10353000F0080020044B036003F15C0008604FF4C6
:1035400080701060704700004C0B002000F10801F3
:103550004FF0FF32C0E90112C1600161002101603A
:10356000704700210161704730B50B685A1C02D0CA
:1035700000F1080202E0026904E02246546825686E
:103580009D42FAD953684B6099608A605160086126
:103590000168491C016030BD42684A6093688B60D5
:1035A00093685960916008610168491C0160704727
:1035B000502080F31188BFF34F8FBFF36F8F0A49FC
:1035C0004868401C486001280CD10848006810F089
:1035D000FF0F07D0502080F31188BFF34F8FBFF348
:1035E0006F8FFEE770470000A400002004ED00E0AC
:1035F0000849486828B1401E486001D180F311880D
:103600007047502080F31188BFF34F8FBFF36F8F47
:10361000FEE70000A400002070B5002827D0144D5C
:10362000A0F108046168E868014207D1502080F3E6
:103630001188BFF34F8FBFF36F8FFEE722683AB157
:10364000502080F31188BFF34F8FBFF36F8FFEE7D9
:103650008143616000F0A0F96068696808446860AF
:103660002046FFF7E7FCBDE8704000F0A1BF70BD49
:103670008C0000204FF0E0200021016181610549AC
:103680004FF47A720968B1FBF2F1491E41610721DA
:10369000016170473400002010B5FCF79DFD114911
:1036A00010280ED300F1E02090F8F0030A78904241
:1036B00007D2502080F31188BFF34F8FBFF36F8F75
:1036C000FEE709480068896800F4E060884207D98D
:1036D000502080F31188BFF34F8FBFF36F8FFEE749
:1036E00010BD0000A40000200CED00E010B5084B58
:1036F000002200BF53F832401CB1521C082AF9D3F3
:1037000010BD43F8321003EBC201486010BD000049
:10371000D402002010B504000AD000F013F894F889
:10372000460000280CD12046BDE81040FFF774BFCA
:10373000502080F31188BFF34F8FBFF36F8FFEE7E8
:1037400010BD0000084A002102EBC1035B68834200
:1037500006D1002042F8310002EBC10148607047F9
:10376000491C0829F0D37047D402002070B51546D3
:103770000E460446FFF71CFF94F944100020491C34
:1037800001D184F8440094F94510491C01D184F812
:103790004500FFF72DFFA06B28B92A46314604F1FA
:1037A000240000F051F82046BDE87040FFF7D2BD7C
:1037B00010B5020014D00F48806B38B1502080F350
:1037C0001188BFF34F8FBFF36F8FFEE700F0E4F86F
:1037D00000211046FFF724FA00F0EAFE002807D186
:1037E00005494FF080500860BFF34F8FBFF36F8FD4
:1037F00010BD00003800002004ED00E002498A6A94
:103800000260496941607047380000200149012089
:10381000486270473800002010B50C4650B1094985
:1038200009681831FFF7A0FE2046BDE810400121CD
:10383000FFF7F6B9502080F31188BFF34F8FBFF325
:103840006F8FFEE73800002070B514460D4668B152
:103850000A4909681831FFF79FFE0CB14FF0FF3598
:1038600021462846BDE87040FFF7DAB9502080F3C2
:103870001188BFF34F8FBFF36F8FFEE73800002032
:1038800070B504003ED0226DA2B1E06C884200D336
:103890000146E06A884235D0012A33D11A4D2A68A0
:1038A00094420FD1502080F31188BFF34F8FBFF3A4
:1038B0006F8FFEE7502080F31188BFF34F8FBFF367
:1038C0006F8FFEE7E162A269002A02DBC1F13801D5
:1038D000A1610E4E00EB8000616906EB8000814221
:1038E00010D1201DFFF708FEE06AA969884200D9BF
:1038F000A86100EB800006EB8000211DBDE8704050
:10390000FFF74ABE70BD00003800002014030020FD
:1039100030B587B00024039405AA04A903A8049431
:10392000FFF7FEFDDDE903010094CDE9011000235E
:1039300015A11748059A00F0DEFC164D00286863B3
:103940001FD000F0C9FE012809D0401C19D1502019
:1039500080F31188BFF34F8FBFF36F8FFEE75020C6
:1039600080F31188BFF34F8FBFF36F8F4FF0FF309D
:1039700028630120E8616C6107B0BDE8304000F0C9
:1039800069B807B030BD000049444C450000000054
:10399000B92E0008380000200248816B491C816361
:1039A0007047000038000020164810B5816B11B137
:1039B0000121416210BD002141628169124A01E08A
:1039C000B9B1491E01EB810352F82330002BF7D027
:1039D00001EB810302EB830202F1080453685B6888
:1039E0005360A34201D15B685360DA680260816171
:1039F00010BD502080F31188BFF34F8FBFF36F8F3E
:103A0000FEE70000380000201403002070B52020DD
:103A1000FFF7D6FC040005D00025201D2560FFF728
:103A200095FD2577204670BD38B558B12021044654
:103A3000002000912060201DFFF788FD01202077E5
:103A4000204638BD502080F31188BFF34F8FBFF35D
:103A50006F8FFEE71CB5264908780190FF2008709B
:103A600008788DF800009DF800009DF8002000F017
:103A7000F000904207D0502080F31188BFF34F8FA1
:103A8000BFF36F8FFEE79DF800001A4B00F0500067
:103A900018700720986005E09DF8002052008DF80E
:103AA0000020401E9DF800201206F5D498600328DF
:103AB00007D0502080F31188BFF34F8FBFF36F8F73
:103AC000FEE74FF440709860019808700A4801685A
:103AD00041F470010160016841F070410160FFF73D
:103AE000C9FD00205860FCF741FB00201CBD000010
:103AF00000E400E0A400002020ED00E010B50C463A
:103B000048B184420FD9502080F31188BFF34F8F02
:103B1000BFF36F8FFEE7502080F31188BFF34F8F04
:103B2000BFF36F8FFEE70222002100F03CF800286F
:103B300000D0846310BD38B50C4648B184420FD91B
:103B4000502080F31188BFF34F8FBFF36F8FFEE7D4
:103B5000502080F31188BFF34F8FBFF36F8FFEE7C4
:103B60000221134600220091114600F040F800287F
:103B700000D0846338BD10B502460021012000F05A
:103B800012F80446FFF7C8F9204610BD38B50B46B9
:103B9000002200901146012000F029F80446FFF7AA
:103BA000BBF9204638BDF8B517460E46050014D0BF
:103BB000DEB105FB06F05030FFF702FC04000AD02E
:103BC000002084F8460004F150023B463146284666
:103BD0000094FFF7ADF92046F8BD502080F311881E
:103BE000BFF34F8FBFF36F8FFEE70020E3E738B5D9
:103BF000049D18B153B1CAB181B120E0502080F3C7
:103C00001188BFF34F8FBFF36F8FFEE7502080F313
:103C10001188BFF34F8FBFF36F8FFEE7502080F303
:103C20001188BFF34F8FBFF36F8FFEE739B150207C
:103C300080F31188BFF34F8FBFF36F8FFEE75024DF
:103C40001C46012384F846302B460094FFF770F998
:103C5000204638BD70B50D46040025D0FFF7A8FCFE
:103C6000D4E90F20216802FB001161600021A163EB
:103C70002168A1600A46D4E90F01401E00FB012122
:103C8000E16021464FF0FF3001F8440F487004F125
:103C900010008DB1FFF75AFC04F12400FFF756FC29
:103CA000FFF7A6FC012070BD502080F31188BFF300
:103CB0004F8FBFF36F8FFEE721690029F0D000F02E
:103CC0003FFC0028ECD004494FF080500860BFF35F
:103CD0004F8FBFF36F8FE3E704ED00E02DE9FF475F
:103CE00082B01D468A464FF00008040003D0BAF1A6
:103CF000000F08D011E0502080F31188BFF34F8FE0
:103D0000BFF36F8FFEE7206C38B1502080F311882D
:103D1000BFF34F8FBFF36F8FFEE7022D0AD1E06B29
:103D2000012807D0502080F31188BFF34F8FBFF3D5
:103D30006F8FFEE700F010FB3F4F4FF000094FF090
:103D4000805648B9049838B1502080F31188BFF3E9
:103D50004F8FBFF36F8FFEE7FFF72AFCA06BE16B7D
:103D6000884207D3022D05D00498D0B1B8F1000FD6
:103D70001AD01EE02A4651462046FFF726F8616A0F
:103D800019B104F1240000F0DBFB20B13E60BFF369
:103D90004F8FBFF36F8FFFF72BFC012006B0BDE8FC
:103DA000F087FFF725FC22E06846FFF727FD4FF07C
:103DB0000108FFF71DFCFFF7EFFDFFF7F9FB94F992
:103DC0004400401C01D184F8449094F94500401C03
:103DD00001D184F84590FFF70BFC04A9684600F078
:103DE00023FA30B12046FFF7B5FA00F0E1FB0020DE
:103DF000D4E7FFF7DDFBA06BE16B884213D1FFF73F
:103E0000F7FB04F110000499FFF706FD2046FFF7C9
:103E1000A1FA00F0CDFB00289ED13E60BFF34F8F8A
:103E2000BFF36F8F98E7FFF7E3FB2046FFF792FAA7
:103E300000F0BEFB90E7000004ED00E02DE9F04744
:103E40001F4690468946040003D0B9F1000F08D000
:103E500011E0502080F31188BFF34F8FBFF36F8FB5
:103E6000FEE7206C38B1502080F31188BFF34F8FEC
:103E7000BFF36F8FFEE7022F0AD1E06B012807D056
:103E8000502080F31188BFF34F8FBFF36F8FFEE791
:103E9000FFF702FC5020EFF3118680F31188BFF387
:103EA0004F8FBFF36F8FA06BE16B884206D3022F59
:103EB00004D0002086F31188BDE8F08794F94550BE
:103EC0003A4649462046FEF780FF681C04D06D1C28
:103ED00084F845500120EDE7606A0028FAD004F12B
:103EE000240000F02DFB0028F4D0B8F1000FF1D031
:103EF0000121C8F80010EDE710B5040009D000F06A
:103F000025FA6168884214D1E068401EE06008D05C
:103F10000DE0502080F31188BFF34F8FBFF36F8FF8
:103F2000FEE700231A4619462046FFF7D7FE012078
:103F300010BD002010BD00002DE9F747002683B01A
:103F40008A46040003D0BAF1000F08D011E05020D7
:103F500080F31188BFF34F8FBFF36F8FFEE7206CA4
:103F600038B1502080F31188BFF34F8FBFF36F8FAC
:103F7000FEE700F0F1F9DFF8F4804FF000094FF0B0
:103F8000805748B9059838B1502080F31188BFF3A5
:103F90004F8FBFF36F8FFEE7FFF70AFBA56BC5B12D
:103FA00051462046FEF7FEFE6D1EA563206950B106
:103FB00004F1100000F0C4FA28B1C8F80070BFF393
:103FC0004F8FBFF36F8FFFF713FB012006B0BDE8E3
:103FD000F087059808B11EB106E0FFF709FB27E05E
:103FE0006846FFF70BFC0126FFF702FBFFF7D4FC46
:103FF000FFF7DEFA94F94400401C01D184F84490A4
:1040000094F94500401C01D184F84590FFF7F0FA7F
:1040100005A9684600F008F9002820460AD0FFF7F5
:1040200099F900F0C5FA2046FFF746F80028B3D00A
:104030000020CBE7FFF740F890B104F12400059988
:10404000FFF7EAFB2046FFF785F900F0B1FA0028F8
:10405000A2D1C8F80070BFF34F8FBFF36F8F9BE7FB
:104060002046FFF777F900F0A3FA95E704ED00E0AA
:104070002DE9F343002683B00400354609D0206CB7
:1040800078B1502080F31188BFF34F8FBFF36F8F4B
:10409000FEE7502080F31188BFF34F8FBFF36F8F7F
:1040A000FEE700F059F9DFF83C814FF000094FF0CE
:1040B000805748B9049838B1502080F31188BFF375
:1040C0004F8FBFF36F8FFEE7FFF772FAA06BC8B197
:1040D000401EA063206810B9FFF7DEF96060206918
:1040E00050B104F1100000F02BFA28B1C8F80070AC
:1040F000BFF34F8FBFF36F8FFFF77AFA012005B040
:10410000BDE8F083049808B166B10FE03DB15020DE
:1041100080F31188BFF34F8FBFF36F8FFEE7FFF778
:1041200067FA5DE06846FFF769FB0126FFF760FA72
:10413000FFF732FCFFF73CFA94F94400401C01D130
:1041400084F8449094F94500401C01D184F84590CE
:10415000FFF74EFA04A9684600F066F800282046EA
:1041600012D0FFF7F7F800F023FA2046FEF7A4FF7D
:104170000028A9D09DB3FFF71BFA606A50B3206BEB
:104180000068C0F1380126E0FEF796FFE0B1206834
:1041900038B9FFF70DFA606800F096F90546FFF7A9
:1041A00027FA04F124000499FFF736FB2046FFF7B5
:1041B000D1F800F0FDF9002886D1C8F80070BFF3EF
:1041C0004F8FBFF36F8F7FE72046FFF7C3F800F0F4
:1041D000EFF979E700216068FFF752FB9FE7FFE7FF
:1041E00000208CE704ED00E070B50D46040009D016
:1041F00000F0ACF8616888420CD1E068401CE060D7
:10420000012070BD502080F31188BFF34F8FBFF3A2
:104210006F8FFEE729462046FFF72AFF0028F0D0DF
:10422000E168491CE16070BD2DE9F0410C460500D4
:1042300011D0C4B1FFF7BCF9174B5A696E682068FA
:10424000911B471C17D02F689B6A9F4219D096423A
:1042500017D8012410E0502080F31188BFF34F8F4E
:10426000BFF36F8FFEE7502080F31188BFF34F8FAD
:10427000BFF36F8FFEE70024FFF7BAF92046BDE8D1
:10428000F081884205D9401A20602846FFF7B6FA27
:10429000F1E700202060DCE7380000202DE9FF5F17
:1042A0008346DDE90E87994616468A469000FFF759
:1042B00087F805001CD05C20FFF782F8040014D0BA
:1042C0000020256384F85900CDE90240CDE900873C
:1042D0004B46324651465846FEF73BFE2046FEF717
:1042E000CDFC012004B0BDE8F09F2846FFF794F90B
:1042F0004FF0FF30F6E7F0B585B0DDE90B640A9DBD
:10430000A6B1DCB15C2700972663022684F85960C9
:10431000002604AFCDE90246CDE90057FEF719FEAD
:104320002046FEF7ABFC049805B0F0BD502080F3AA
:104330001188BFF34F8FBFF36F8FFEE7502080F3DC
:104340001188BFF34F8FBFF36F8FFEE701480068FE
:1043500070470000380000200548C16919B1806B22
:1043600018B10020704701207047022070470000FC
:1043700038000020014840697047000038000020E4
:104380002DE9F0412E4C0027A06B40B1206A401C63
:104390002062606A00B101273846BDE8F081666995
:1043A000761C666113D16068006838B1502080F3D4
:1043B0001188BFF34F8FBFF36F8FFEE76068A1686E
:1043C0006160A060A06A401CA062FEF743FF206B02
:1043D000DFF87080864209D36068006880B1606849
:1043E000C068C568686886420DD220632068C06ACC
:1043F00000EB800158F821000128CAD90127C8E73D
:104400004FF0FF30F1E7281DFFF776F8A86A18B1E2
:1044100005F11800FFF770F8E86AA169884200D931
:10442000A06100EB800108EB8100291DFFF7B4F8C3
:10443000E86A2168C96A8842CED30127CCE7000028
:10444000380000201403002070B504004FF0000174
:1044500033D01B4D2868844207D0502080F3118848
:10446000BFF34F8FBFF36F8FFEE7206D38B1401E53
:104470002065E36CE26A9A421FD040B11DE05020F3
:1044800080F31188BFF34F8FBFF36F8FFEE7201DBE
:10449000FFF732F8E06CE062C0F13800A061E06A3A
:1044A000A969884200D9A861064900EB800001EBA8
:1044B0008000211DFFF770F80121084670BD000043
:1044C000380000201403002070B504004FF00000F5
:1044D0002BD0194DE16A2A68D26A914226D2A0698E
:1044E000002804DB2868C06AC0F13800A061134EC0
:1044F00001EB8101606906EB8101884211D1201D29
:10450000FEF7FAFF2868C06AE062A969884200D90C
:10451000A86100EB800006EB8000211DFFF73CF84E
:1045200002E02868C06AE062012070BDE16C2A6880
:10453000D26A9142F8D370BD3800002014030020E5
:1045400070B5C068C46854B104F118000646FEF79F
:10455000D3FF144DA86B50B13146134815E05020DD
:1045600080F31188BFF34F8FBFF36F8FFEE7201DDD
:10457000FEF7C2FFE06AA969884200D9A8610B4929
:1045800000EB800001EB8000211DFFF705F8E06AD9
:104590002968C96A884202D90120686270BD00207A
:1045A00070BD0000380000209C070020140300208C
:1045B0002DE9F0472C4D00242746A86B38B1FEF7B3
:1045C000F7FFA86B401EA863A86B40B146E05020DF
:1045D00080F31188BFF34F8FBFF36F8FFEE7296918
:1045E000224E0120D1B3A6F5916980463068E0B132
:1045F000F068C46804F11800FEF77EFF201DFEF786
:104600007BFFE06AA969884200D9A86100EB8001BC
:1046100009EB8100211DFEF7BFFFE06A2968C96A26
:104620008842E3D3C5F82480E0E70CB1FEF712FE20
:104630002C6A4CB14FEA0806FFF7A2FE00B16E6289
:10464000641EF9D100202862686A38B10849012740
:1046500038070860BFF34F8FBFF36F8FFEF7C8FFB7
:104660003846BDE8F0870000380000209C07002095
:1046700004ED00E02DE9FC4781461E4617468846BA
:1046800030200A9DFEF79CFE04000AD0CDE90054BC
:1046900033463A4641464846FEF7A9FC002084F8D6
:1046A0002C002046BDE8FC877CB53026DDE90654A9
:1046B000009644B1CDE90054FEF799FC012084F83E
:1046C0002C0020467CBD502080F31188BFF34F8F13
:1046D000BFF36F8FFEE7000010B586B0FEF736FB24
:1046E000114CA068B8B100200390049005AA04A959
:1046F00003A8FEF71FFFDDE9032102208DE8070074
:1047000000230AA10B48059AFFF7F5FDE06010B100
:1047100006B0012010BD502080F31188BFF34F8FE9
:10472000BFF36F8FFEE7000074000020546D72200D
:1047300053766300313300082DE9FF411E461346CE
:1047400002000A9D4FF0000016D0144CA768002FFD
:104750000FD0CDE900130292062917DAFFF7FCFD0E
:1047600002284FF000030FD000226946A068FFF72F
:10477000B5FA04B0BDE8F081502080F31188BFF392
:104780004F8FBFF36F8FFEE72A46EEE700233246D6
:1047900069463846FFF752FBEBE700007400002043
:1047A00014490008000000000000000000000000A4
:1047B00000000000000200001800000000000000DF
:1047C0000000000020490008000000000000000078
:1047D0000000000000000000000200000A000000CD
:1047E00000000000000000002C490008000000004C
:1047F00000000000000000000000000000020000B7
:10480000080000000000000000000000B0480008A0
:104810000000000000000000000000000000000098
:1048200000000000DC48000800000000000000005C
:10483000000000000849000800000000000000001F
:1048400000000000F4480008010000000000000023
:1048500000000000CC48000800000000000000003C
:1048600000000000BC48000800000000000000003C
:1048700000000000E8480008000000000000000000
:1048800000000000010202030405060708090A0BE4
:104890000C0D0E0F101000000000000000000102BF
:1048A00003040607080900000000010203040000D9
:1048B0006D79517565756530310000006D79436F14
:1048C000756E74696E6753656D3031006D7942693C
:1048D0006E61727953656D30310000006D795469F5
:1048E0006D657230310000006D794576656E74300B
:1048F000310000006D795265637572736976654D9C
:1049000075746578303100006D794D757465783057
:104910003100000064656661756C745461736B00EE
:104920006D795461736B5573617274006D79546164
:10493000736B4B65790000005849000800000020A7
:10494000B4000000102700080C4A0008B400002042
:10495000F41E0000202700080000000000000000F6
:104960000000000000000000000000000000000047
:104970000000000000000000000000000000000037
:1049800001000000100000000000000000127A008A
:104990000000000000000000000000000000000017
:1049A0000000000000000000000000000000000007
:1049B00000000000000000000000000000000000F7
:1049C00000000000000000000000000000000000E7
:1049D00000000000000000000000000000000000D7
:1049E00000000000000000000000000000000000C7
:1049F00000000000000000000000000000000000B7
:0C4A0000AAAAAAAA000000000000000002
:0400000508000131BD
:00000001FF
