:020000040800F2
:10000000B8200020E1010008FD3E00082F34000860
:10001000F93E00081B0A0008CB4A00080000000057
:10002000000000000000000000000000490100087E
:10003000150B0008000000008D010008694200084F
:10004000FB010008FB010008FB010008FB010008A0
:10005000FB010008FB010008FB010008FB01000890
:10006000FB010008FB010008FB010008FB01000880
:10007000FB010008FB010008CD0A0008DD0A0008AA
:10008000FB010008FB010008FB010008FB01000860
:10009000FB010008FB010008FB010008FB01000850
:1000A000FB010008FB010008FB010008FB01000840
:1000B000FB010008FB010008FB010008FB01000830
:1000C000FB010008FB010008FB010008FB01000820
:1000D000FB01000819460008FB010008FB010008AD
:1000E000FB010008FB010008FB010008FB01000800
:1000F000FB010008FB010008FB010008FB010008F0
:10010000FB010008FB010008FB010008FB010008DF
:10011000FB010008FB01000805430008FB01000883
:10012000FB010008FB010008FB010008FB010008BF
:10013000DFF810D000F03EFC00480047B99A0008F4
:10014000AFF30080B8200020224B19680868B0E89F
:10015000F00F80F30988BFF36F8F4FF0000080F33A
:1001600011884EF00D0E7047000000000648006830
:10017000006880F3088862B661B6BFF34F8FBFF3A3
:100180006F8F00DF00BF00BF08ED00E0EFF30980D4
:10019000BFF36F8F0F4B1A6820E9F00F106008B59E
:1001A0004FF0500080F31188BFF34F8FBFF36F8F74
:1001B0000BF00AFE4FF0000080F31188BDE8084004
:1001C00019680868B0E8F00F80F30988BFF36F8FF3
:1001D000704700BFA8000020EFF3058070470000C3
:1001E0000648804706480047FEE7FEE7FEE7FEE7D1
:1001F000FEE7FEE7FEE7FEE7FEE7FEE70343000853
:1002000031010008202A04DB203A21FA02F0002103
:10021000704721FA02F3D040C2F120029140084316
:100220001946704740EA01039B0703D009E008C95B
:10023000121F08C0042AFAD203E011F8013B00F8AB
:10024000013B521EF9D27047D2B201E000F8012BF7
:10025000491EFBD270470022F6E710B513460A4646
:1002600004461946FFF7F0FF204610BD10B50022E6
:1002700000E0521C835C8C5CA34201D1002BF8D1BE
:10028000D8B2E1B2401A10BDF0B480EA0102D40F36
:100290004200B2EB410F02D20246084611464A0024
:1002A00042D0C30DDDB2C1F3C752AD1A202D35DAED
:1002B000C1F3160141F4000204B15242C5F1200617
:1002C00002FA06F12A411044B3EBD05F23D0C4B147
:1002D000012DA0EBC35009DCF0BC4FF0004202EA54
:1002E000C352DBB200F5000000F01ABA400000F182
:1002F000807000EBC350A0F1807040EAD1704900DB
:1003000009E0490841EAC071A0EBC35000F50000C4
:10031000400800EBC350F0BC00F0F9B96142012283
:1003200002EB4101001BF6E7F0BC704781F0004191
:10033000AAE780F00040A7E730B480EA010202F0AB
:10034000004530F0004221F0004013D090B1C30DC1
:10035000D40DC2F31601C0F31600E41A41F40001F3
:1003600040F400027D34914201D3641C00E0490056
:10037000002C02DA30BC002070474FF4000000234C
:10038000914201D3891A034340084FEA4101F7D152
:1003900051B1914202D14FF0004105E002D24FF03D
:1003A000010101E06FF0010103EBC450284430BCAF
:1003B00000F0ADB92DE9FE4F81EA030404F00044DA
:1003C00021F0004100944FF0000B23F0004350EA6D
:1003D00001045ED052EA03045BD0C3F30A54C1F3B4
:1003E0000A552C44A4F2F3340194A0FB0254C1F347
:1003F000130141F48011C3F3130343F4801301FB91
:10040000024400FB034E840A970A44EA815447EAF7
:100410008357A4FB076802958D0A05FB07854FEA01
:10042000932C04FB0C542705029D4FEA065847EA1B
:100430001637B5EB08056EEB070C870E920E47EAF0
:10044000811742EA8312A7FB0201B6EB0B0164EBB2
:1004500000042B0D43EA0C335E1844EB1C50DA46C3
:100460005146E7FB0201C5F313044FEA0B3343EA9D
:1004700014534FEA0432019C43EA0603A4F10C042E
:100480000294009CCDE900B400F087F903B0BDE808
:10049000F08F00200146F9E72DE9F04D81EA0304D1
:1004A00004F0004B21F0004514464FF0000A23F001
:1004B000004150EA050220D054EA01021DD0C5F3E4
:1004C0000A570246C5F31303C1F31300C1F30A56DA
:1004D00040F4801543F48013A7EB0608101BD646A2
:1004E00008F2FD3873EB050002D308F1010801E0C2
:1004F00092185B41B8F1000F03DA00200146BDE815
:10050000F08D00204FF48011064684460EE0171B44
:1005100073EB050705D3121B63EB050306434CEA97
:10052000010C49084FEA300092185B4150EA01077C
:10053000EDD152EA030012D082EA040083EA0501F9
:10054000084305D0101BAB4106D20122002306E070
:1005500000224FF0004302E06FF0010253101AEB4B
:1005600006004CEB085110EB0A0041EB0B01BDE813
:10057000F04D00F003B9C10F80EAE0700844CA07EB
:100580009623002100F0CCB80EB5C10F80EAE070D0
:100590000844CA07002140F233438DE80E000A46A2
:1005A0000B4600F0FAF803B000BD0EB540F233413F
:1005B00002910021CDE900110A460B4600F0EDF84A
:1005C00003B000BD20F00040C10DC0F3160040F4A0
:1005D00000007F2901DA00207047962903DCC1F171
:1005E0009601C8407047963988407047C1F30A5257
:1005F00010B5C1F3130140F2FF3341F480119A4268
:1006000001DA002010BD40F233439A42A2F2334295
:1006100003DC5242FFF7F6FD10BD904010BD000014
:1006200030B5041E71F1000404DB4FF00044404279
:1006300064EB0101141E73F1000405DB1C464FF04E
:100640000043524263EB04038B4208BF824230BD39
:1006500030B5041E71F1000404DB4FF00044404249
:1006600064EB0101141E73F1000405DB1C464FF01E
:100670000043524263EB0403994208BF904230BDED
:1006800030B50B46014600202022012409E021FA62
:1006900002F59D4205D303FA02F5491B04FA02F55F
:1006A0002844151EA2F10102F1DC30BD2DE9F05FF6
:1006B0000546002092469B468846064681464024D1
:1006C0001BE02846414647462246FFF79BFD53461E
:1006D0005A46C01A914110D311461846224600F0DE
:1006E0007BF92D1A67EB01084F46224601200021B5
:1006F00000F072F917EB00094E41201EA4F101042D
:10070000DFDC484631462A464346BDE8F09F0029D3
:10071000A8BF7047401C490008BF20F00100704787
:1007200010B4B0FA80FC00FA0CF050EA010404BFE7
:1007300010BC704749B1CCF1200421FA04F411FA3D
:100740000CF118BF012121430843A3EB0C01CB1D81
:100750004FEA00614FEA102042BF002010BC7047F2
:1007600000EBC35010440029A4BF10BC7047401CCC
:10077000490008BF20F0010010BC704710B5141EDE
:1007800073F1000408DA401C41F1000192185B414A
:100790001A4301D120F0010010BD2DE9F04D924621
:1007A0009B4611B1B1FA81F202E0B0FA80F2203238
:1007B000904600F011F904460F4640EA0A0041EA6B
:1007C0000B0153465A46084313D0114653EA010021
:1007D00019D0C8F140025046FFF714FD05460E46F9
:1007E00050465946424600F0F7F8084305D001202C
:1007F00004E020463946BDE8F08D0020054346EA76
:10080000E0762C4337430A986305E40AA0EB08001E
:100810000022FD0A44EA47540A3002D5002001466E
:10082000E9E7010510196941DDE908450019694149
:10083000BDE8F04DA2E72DE9FE4F804681EA0300B6
:10084000C00F0C46009021F0004123F00045B8EBAA
:100850000200A94105D24046214690461C460B465F
:10086000024623F00040104347D0270DC7F30A008B
:10087000C3F30A510290401A019040286BDAC3F387
:10088000130040F4801B0098924620B10023D2EB65
:10089000030A63EB0B0B01985946C0F14002504626
:1008A00000F09AF806460D4650465946019A00F067
:1008B000A2F810EB08006141002487EA115284EA93
:1008C000E7731A4340D0009A62B3019A012A4FEAB3
:1008D000075215DC001B61EB02014FF0004202EAF7
:1008E0000752CDE90042001C41F5801132462B46EB
:1008F000FFF753FF03B0BDE8F08F40462146F9E70C
:10090000001B61EB0201001C41F5801300185B41E4
:100910002018A2F5001747EB030140EAD570B6197D
:100920006D4111E06D084FEA360645EAC0754FEAA1
:100930000752001B61EB0201001C41F580114908C0
:100940004FEA30000019514132462B4603B0BDE852
:10095000F04FFFF713BF0098012240000023D0EBB7
:10096000020263EBE073009821464FEAE074B8EBB3
:10097000000061EB0401E9E783F000435BE781F0ED
:10098000004158E7C1F30A52C1F3130140F2FF33AB
:1009900041F480119A4202DA00200146704740F289
:1009A00033439A42A2F2334202DC5242FFF72ABC9E
:1009B00000F012B8064C074D06E0E06840F0010375
:1009C00094E8070098471034AC42F6D3FFF7B4FB25
:1009D00094030108B4030108202A04DB203A00FA3A
:1009E00002F1002070479140C2F1200320FA03F386
:1009F000194390407047202A06DBCB17203A41FA72
:100A000002F043EAE07306E041FA02F3D040C2F19B
:100A10002002914008431946704700BFFEE7704727
:100A20002DE9F04109F0F2F8074600262448416814
:100A300000208847002841D021488489058C232C38
:100A400009DBD72C07DCB5F58E7F04DDB5F5C67F55
:100A500001DA012618E0EB2C0ADBB4F5D07F07DAC7
:100A6000B5F58E7F04DDB5F5C67F01DA02260BE011
:100A70005F2C09DBB4F5B27F06DAB5F5CA7F03DD7A
:100A8000B5F5017F00DA0326AEB10E480078864244
:100A900006D00C4806700C4807603046BDE8F0816F
:100AA00009480068381A502803D3074807603046C1
:100AB000F4E70020F2E70020024908700020EDE78B
:100AC000500000203C0000204000002010B50248EB
:100AD00000F076FA10BD00000003002010B50248B7
:100AE00000F06EFA10BD0000BC020020074800684C
:100AF00040F08070054908600548006840F001003A
:100B0000034908600020486070470000FCED00E0E9
:100B1000001000E0704772B600BFFEE770B50446F3
:100B2000B3F5804F13D1D1E9000540EA05108D6877
:100B300040EA05208D6928438D8940EA054054F834
:100B40002250064E3540284344F8220003E06FF05F
:100B5000704044F82200002070BD00000000F0CF7B
:100B600070B50246086852F8200020F001000E68B7
:100B700042F826008868082801D1402300E00023BD
:100B8000486818438E683043CE6830430E6930435E
:100B90004E693043CE6930430E6A30434E6A30436B
:100BA0008E6A3043CE6A30430E6B40EA0604886991
:100BB0000443486B0443074D45F4806545F4E02544
:100BC000086852F82000A84320430E6842F8260027
:100BD000002070BD7FFB080010B50346D1E900047A
:100BE00040EA04108C6840EA04208C8940EA0444FE
:100BF000088A401E44EA0054087D801E44EA0060D2
:100C00008C692043541C53F8244004F04044204392
:100C1000541C43F82400002010BD70B504460CB9E4
:100C2000012070BD94F8200010B9204600F0B0F803
:100C30002068006840F001002168086000F0DEFDD7
:100C400005460DE000F0DAFD401B0A2808D9606A6D
:100C500040F400306062052084F820000120E0E7C5
:100C60002068406800F001000028EBD02068006890
:100C700020F002002168086000F0C0FD05460DE08C
:100C800000F0BCFD401B0A2808D9606A40F400301F
:100C90006062052084F820000120C2E720684068D7
:100CA00000F002000028EBD1207E012806D1206848
:100CB000006840F080002168086005E02068006856
:100CC00020F0800021680860607E012806D120683D
:100CD000006840F040002168086005E02068006876
:100CE00020F0400021680860A07E012806D120681D
:100CF000006840F020002168086005E02068006876
:100D000020F0200021680860E07E012806D12068DC
:100D1000006820F010002168086005E02068006885
:100D200040F0100021680860207F012806D120686B
:100D3000006840F008002168086005E0206800684D
:100D400020F0080021680860607F012806D1206833
:100D5000006840F004002168086005E02068006831
:100D600020F0040021680860D4E9020108432169E9
:100D70000843616908436168491E08432168C861E6
:100D800000206062012084F82000002049E7000074
:100D900010B586B0044600200290039004900590A0
:100DA0001A49206888422ED100BF1948C06940F016
:100DB00000701749C8610846C06900F000700190D2
:100DC00000BF00BF00BF0846806940F00400886192
:100DD0000846806900F00400019000BF00BFC814FD
:100DE000029000200390049002A90A4800F058FBEA
:100DF0004FF480500290022003900320059002A936
:100E0000044800F04DFB06B010BD00000064004037
:100E1000001002400008014070B50446002594F817
:100E20002100022803D00420A0630125C1E020682E
:100E3000006820F00E00216808602068006820F03B
:100E40000100216808605C492068884252D95A49EB
:100E500078392068884201D1012047E05649643939
:100E60002068884201D1102040E053495039206861
:100E7000884201D1801539E04F493C3920688842C9
:100E800001D1801432E04C4928392068884202D1CF
:100E90004FF480302AE0484914392068884202D152
:100EA0004FF4801022E044492068884201D1400478
:100EB0001CE042492068884201D1012016E03F49E8
:100EC00014312068884201D110200FE03B492831BD
:100ED0002068884201D1801508E038493C312068FB
:100EE000884201D1801401E04FF480303349091F5A
:100EF000086051E0304978392068884201D10120EA
:100F000047E02D4964392068884201D1102040E033
:100F1000294950392068884201D1801539E0264995
:100F20003C392068884201D1801432E022492839B6
:100F30002068884202D14FF480302AE01E491439DB
:100F40002068884202D14FF4801022E01A492068BC
:100F5000884201D140041CE018492068884201D130
:100F6000012016E0154914312068884201D1102073
:100F70000FE0124928312068884201D1801508E02D
:100F80000E493C312068884201D1801401E04FF4C1
:100F90008030094980394860012084F8210000BF71
:100FA000002084F8200000BF606B10B12046616B08
:100FB0008847284670BD00008000024008040240B7
:100FC00070B50446E06B05682068066894F8401028
:100FD000042088402840002875D006F0040000282E
:100FE000FAD02068006800F0200028B92068006866
:100FF00020F0040021680860D5492068884254D94F
:10100000D34978392068884201D1042049E0D04989
:1010100064392068884201D1402042E0CC495039EF
:101020002068884201D100153BE0C9493C3920685D
:10103000884202D14FF4804033E0C5492839206806
:10104000884202D14FF480202BE0C1491439206836
:10105000884202D14FF4800023E0BD4920688842D5
:1010600001D1C0041DE0BB492068884201D10420A1
:1010700017E0B84914312068884201D1402010E0BF
:10108000B44928312068884201D1001509E0B149EE
:101090003C312068884202D14FF4804001E04FF497
:1010A0008020AC49091F086054E0A94978392068BC
:1010B000884201D104204AE0A54964392068884269
:1010C00002D1402043E04CE0A149503920688842D9
:1010D00001D100153BE09E493C392068884202D18D
:1010E0004FF4804033E09A4928392068884202D181
:1010F0004FF480202BE0964914392068884202D1B1
:101100004FF4800023E092492068884201D1C00456
:101110001DE090492068884201D1042017E08D49E4
:1011200014312068884201D1402010E089492831DB
:101130002068884201D1001509E086493C312068C9
:10114000884202D14FF4804001E04FF48020804972
:1011500080394860E06A002802D02046E16A88476A
:10116000F4E094F84010022088402840002871D014
:1011700006F002000028FAD02068006800F0200085
:1011800040B92068006820F00A002168086001204A
:1011900084F821006E492068884254D96C49783916
:1011A0002068884201D1022049E0694964392068F9
:1011B000884201D1202042E06549503920688842A8
:1011C00001D140153BE062493C392068884202D198
:1011D0004FF4005033E05E4928392068884202D13C
:1011E0004FF400302BE05A4914392068884202D16C
:1011F0004FF4001023E056492068884201D1800452
:101200001DE054492068884201D1022017E051496D
:1012100014312068884201D1202010E04D49283146
:101220002068884201D1401509E04A493C312068D4
:10123000884202D14FF4005001E04FF4003045499C
:10124000091F086054E0424978392068884202D179
:1012500002204AE057E03E4964392068884201D1C3
:10126000202042E03A4950392068884201D1401597
:101270003BE037493C392068884202D14FF40050A6
:1012800033E0334928392068884202D14FF40030D6
:101290002BE02F4914392068884202D14FF4001006
:1012A00023E02B492068884201D180041DE02949B0
:1012B0002068884201D1022017E0264914312068B5
:1012C000884201D1202010E022492831206888423C
:1012D00001D1401509E01F493C312068884202D104
:1012E0004FF4005001E04FF4003019498039486054
:1012F00000BF002084F8200000BFA06A30B3204661
:10130000A16A884722E094F84010082088402840CD
:10131000E0B106F00800C8B12068006820F00E00B7
:101320002168086094F8401001208840E16B486013
:101330000120A06384F8210000BF002084F8200071
:1013400000BF206B10B12046216B884770BD0000A4
:1013500080000240080402400146002209B9012031
:1013600070471E4B086898420BD21D4B0868C01A84
:101370001423B0FBF3F08000086419480838C863F0
:101380000AE0164B0868C01A1423B0FBF3F0800083
:10139000086412480838C863022081F821000868F0
:1013A000026843F6F0708243D1E901031843CB6829
:1013B00018430B6918434B6918438B691843CB6971
:1013C000184302430868026000208863012081F806
:1013D0002100002081F8200000BFC1E7080402407E
:1013E0000800024070B5044600F008FA064625469B
:1013F000681C10B104480078054400BF00F0FEF9F5
:10140000801BA842FAD370BDA000002000B585B0B3
:10141000002001900290039004901C48006808B1DD
:1014200005B000BD01201949086000BF1848406997
:1014300040F48070164948610846406900F48070A5
:10144000009000BF00BF41F2010001900220029015
:101450000320049001A90F4800F022F84FF6807095
:101460000190022002900320049001A90A4800F094
:1014700017F84CF233700190022002900320049080
:1014800001A9064800F00CF800BFC9E734000020AD
:1014900000100240002001400018014000140140EB
:1014A0002DE9F847024600239C467BE14FF00108F6
:1014B00008FA03F4D1F8008008EA0400A0427DD1C4
:1014C000DFF8F4A2D1F80480A8EB0A09D0453AD09D
:1014D00014DCB8F1030F50D009DCB8F1000F31D0A3
:1014E000B8F1010F1CD0B8F1020F49D120E0B8F1DA
:1014F000110F18D0B8F1120F42D11EE0B9F5881FB4
:1015000025D006DCB9F5803F20D0B9F5801F37D152
:101510001AE0B9F5001F18D0B9F5041F30D117E053
:10152000D1F80CC02DE0D1F80C8008F1040C28E0B3
:10153000D1F80C8008F1080C23E0D1F80C8008F1F8
:101540000C0C1EE000BF00BF00BF00BF00BF00BF0B
:10155000D1F80880B8F1000F02D14FF0040C0BE075
:10156000D1F80880B8F1010F03D14FF0080C1461D5
:1015700002E04FF0080C546103E04FF0000C00E073
:1015800000BF00BFFF2801D8904601E002F1040827
:101590004646FF2802D84FEA830803E0A3F1080873
:1015A0004FEA88084746D6F800804FF00F0909FA3D
:1015B00007F928EA09080CFA07F900E07AE048EA96
:1015C0000908C6F80080D1F8048008F08058B8F106
:1015D000805F6FD100BFDFF8E481D8F8188048F051
:1015E0000108DFF8D891C9F81880C846D8F81880E3
:1015F00008F00108CDF8008000BF00BF4FEAB938FD
:101600004FEA930958F829504FEA83784FEA18793E
:101610004FF00F0808FA09F825EA0805DFF8A0815D
:10162000424502D14FF0000824E0DFF8988142459E
:1016300002D14FF001081DE0DFF88C81424502D154
:101640004FF0020816E0DFF88481424502D14FF0E6
:1016500003080FE0DFF87881424502D14FF004081B
:1016600008E0DFF87081424502D14FF0050801E043
:101670004FF006084FEA83794FEA197908FA09F81A
:1016800048EA0505DFF850814FEA930948F82950E8
:10169000D1F8048008F48018B8F5801F0BD1DFF86A
:1016A0003C81D8F8008048EA0008DFF83091C9F89A
:1016B00000800AE075E0DFF82481D8F8008028EA8D
:1016C0000008DFF81891C9F80080D1F8048008F408
:1016D0000018B8F5001F0ED1DFF8008108F10408EA
:1016E000D8F8008048EA0008DFF8F09009F1040912
:1016F000C9F800800DE0DFF8E48008F10408D8F8AC
:10170000008028EA0008DFF8D49009F10409C9F83C
:101710000080D1F8048008F40038B8F5003F0ED1FD
:10172000DFF8B880A8F10408D8F8008048EA00087B
:10173000DFF8A890A9F10409C9F800800DE0DFF8EE
:101740009C80A8F10408D8F8008028EA0008DFF897
:101750008C90A9F10409C9F80080D1F8048008F43C
:101760008038B8F5803F0ED1DFF87080A8F1080806
:10177000D8F8008048EA0008DFF86090A9F108096D
:10178000C9F800800DE0DFF85480A8F10808D8F807
:10179000008028EA0008DFF84490A9F10809C9F898
:1017A00000805B1CD1F8008028FA03F8B8F1000F24
:1017B0007FF47CAEBDE8F8870000111000100240F5
:1017C00000080140000C01400010014000140140DD
:1017D00000180140001C01400800014008040140BD
:1017E000024693680B400BB1012000E000207047D7
:1017F0000AB1016101E00B04036170470148006810
:101800007047000098000020014691F83D007047A5
:1018100070B504460CB9012070BD94F83D0028B99C
:10182000002084F83C00204600F03EFB242084F891
:101830003D002068006820F00100216808602068F1
:10184000006840F40040216808602068006820F4C7
:1018500000402168086000F05BFD05465C49606857
:10186000884206D85B48854201D2012007E000206B
:1018700005E05948854201D2012000E000200128FE
:1018800000D1C9E75548B5FBF0F62068406820F064
:101890003F003043216848604D496068884201D864
:1018A000701C07E04FF4967070434FF47A71B0FBF0
:1018B000F1F0401C2168096A21F03F0108432168CA
:1018C000086243496068884214D8681E616849000C
:1018D000B0FBF1F0401CC0F30B00042801D204203F
:1018E0003DE0681E61684900B0FBF1F0401CC0F3A8
:1018F0000B0034E0A06838B9681E616801EB410153
:10190000B0FBF1F0401C0AE0681E616801EBC10207
:1019100002EB0111B0FBF1F0401C40F48040C0F339
:101920000B0008B901201AE0A06848B9681E616878
:1019300001EB4101B0FBF1F0401CC0F30B000CE0E7
:10194000681E616801EBC10202EB0111B0FBF1F00E
:10195000401CC0F30B0040F4804040F4004021687C
:10196000C9694CF6FF72914308432168C861D4E904
:10197000070108432168096821F0C0010843216874
:101980000860D4E9031008432168896848F2FF32EF
:101990009143084321688860D4E905010843216820
:1019A000C96821F0FF0108432168C8602068006809
:1019B00040F001002168086000202064202084F8A5
:1019C0003D000020206384F83E0000BF24E70000B3
:1019D000A086010080841E0000093D0040420F00E7
:1019E0002DE9FE4F04460F4690469946DDE90CABC3
:1019F0000E9E00200290FFF701FF054694F83D007F
:101A0000202872D119230122CA492046009501F0ED
:101A100082FE10B10220BDE8FE8F00BF94F83C00AA
:101A2000012801D10220F6E7012084F83C0000BF24
:101A30002068006800F0010028B92068006840F0C4
:101A40000100216808602068006820F400602168B7
:101A50000860222084F83D00402084F83E000020E9
:101A60002064C4F824A0A4F82AB0608D2085B24870
:101A7000E0624B46424639462046CDE9006501F01A
:101A8000F7FC08B10120C6E7208D88B900BF00200F
:101A9000019020684069019020688069019000BF32
:101AA00000BF2068006840F40070216808604BE0C7
:101AB000208D01281AD12068006820F480602168F8
:101AC000086072B600BF0020019020684069019054
:101AD00020688069019000BF00BF2068006840F462
:101AE00000702168086062B62EE020E1208D022897
:101AF00019D12068006840F400602168086072B65F
:101B000000BF002001902068406901902068806932
:101B1000019000BF00BF2068006820F48060216849
:101B2000086062B610E02068006840F480602168B8
:101B3000086000BF00200190206840690190206883
:101B40008069019000BF00BFE2E0208D03287DD8AE
:101B5000208D012815D12A463146204601F0B7FED6
:101B600008B1012057E720680069616A0870606A5F
:101B7000401C6062208D401E2085608D401E608567
:101B8000C6E0208D02282CD1334600226B49204626
:101B9000009501F0C0FD08B101203CE772B6206855
:101BA000006840F400702168086020680069616A7C
:101BB0000870606A401C6062208D401E2085608D28
:101BC000401E608562B620680069616A0870606ABC
:101BD000401C6062208D401E2085608D401E608507
:101BE00096E03346002255492046009501F093FDCA
:101BF00008B101200FE72068006820F480602168A8
:101C0000086072B620680069616A0870606A401CEA
:101C10006062208D401E2085608D401E6085484892
:101C200000681921B0FBF1F04FF47A71B0FBF1F0CC
:101C3000C0EBC00000EB8000029000BF0298401E85
:101C400002900298A8B90020206300E039E020202B
:101C500084F83D00002084F83E00206C40F0200015
:101C6000206462B600BF002084F83C0000BF012061
:101C7000D1E620684069C0F380000028DED02068EB
:101C8000006840F400702168086020680069616A9B
:101C90000870606A401C6062208D401E2085608D47
:101CA000401E608562B620680069616A0870606ADB
:101CB000401C6062208D401E2085608D401E608526
:101CC00026E02A463146204601F001FE08B10120F7
:101CD000A1E620680069616A0870606A401C606261
:101CE000208D401E2085608D401E608520684069E3
:101CF000C0F3800060B120680069616A0870606AA2
:101D0000401C6062208D401E2085608D401E6085D5
:101D1000208D00287FF419AF202084F83D0000209A
:101D200084F83E0000BF84F83C0000BF73E6022048
:101D300071E60000020010000000FFFF0400010037
:101D4000A40000202DE9FC5F04460F46904699460A
:101D5000DDE90CAB0E9EFFF751FD054694F83D0002
:101D600020287DD1192301224D492046009501F0FC
:101D7000D2FC10B10220BDE8FC9F00BF94F83C00EB
:101D8000012801D10220F6E7012084F83C0000BFC1
:101D90002068006800F0010028B92068006840F061
:101DA0000100216808602068006820F40060216854
:101DB0000860212084F83D00402084F83E00002087
:101DC0002064C4F824A0A4F82AB0608D208535488A
:101DD000E0624B46424639462046CDE9006501F0B7
:101DE000F7FB08B10120C6E731E02A46314620461C
:101DF00001F0B2FD50B1206C042805D120680068C4
:101E000040F40070216808600120B4E7606A00783F
:101E100021680861606A401C6062208D401E208538
:101E2000608D401E608520684069C0F3800070B1FD
:101E3000208D60B1606A007821680861606A401C8A
:101E40006062208D401E2085608D401E6085208D43
:101E50000028CAD12A463146204601F029FC00E07C
:101E60001CE050B1206C042805D12068006840F4C3
:101E700000702168086001207DE72068006840F458
:101E8000007021680860202084F83D00002084F85C
:101E90003E0000BF84F83C0000BF6CE702206AE708
:101EA000020010000000FFFF10B586B004460020BD
:101EB000029003900490059015492068884225D12E
:101EC00000BF1448806940F0080012498861084644
:101ED000806900F00800019000BF00BFC0200290A0
:101EE000122003900320059002A90B48FFF7D8FAAF
:101EF00000BF0848C06940F400100649C8610846A0
:101F0000C06900F40010019000BF00BF06B010BD12
:101F10000054004000100240000C014003480068DB
:101F20000349097808440149086070479800002077
:101F3000A000002010B50848006840F010000649D5
:101F40000860032000F0E2F80F2000F007F800F02E
:101F50005FF8002010BD0000002002402DE9F04194
:101F600088B004460027B846002600BF2348C06951
:101F700040F010002149C8610846C06900F0100017
:101F8000019000BF00BF02A903A800F099F9069FC5
:101F90001FB900F0BDF9054602E000F0B9F94500AF
:101FA0001748B5FBF0F0A0F1010816481649086083
:101FB00040F2E7311448C160C0F80480002101619B
:101FC0008160816100F0F0FC064696B90E4800F091
:101FD00049FD06466EB9362000F04AF8102C07D2AB
:101FE00000222146362000F053F80848046000E043
:101FF0000126304608B0BDE8F08100000010024024
:1020000040420F0000100040440300209C000020CC
:1020100008B500BF1448806940F00100124988618A
:102020000846806900F00100009000BF00BF00BFBB
:102030000846C06940F08050C8610846C06900F099
:102040008050009000BF00BF00220F21901E00F0C2
:102050001FF800BF0549486820F0E06040F00070BC
:10206000486000BF08BD00000010024000000140B1
:1020700001460846002809DB00F01F0301229A40B0
:1020800043099B0003F1E023C3F8002100BF704720
:102090002DE9F05F80460D461646002702F03CFD14
:1020A000074639462A46334601F00700C0F1070AC1
:1020B000BAF1040F02D94FF0040A01E0C0F1070A97
:1020C000D14600F1040ABAF1070F02D24FF0000A1C
:1020D00001E0A0F1030AD4464FF0010A0AFA09FA16
:1020E000AAF1010A0AEA020A0AFA0CFA4FF0010BF5
:1020F0000BFA0CFBABF1010B0BEA030B4AEA0B04E6
:102100002146404602F010FDBDE8F09F00BF00F000
:102110000702064B19684FF6FF031940044B0B43A7
:1021200043EA0221014B196000BF70470CED00E04B
:102130000000FA0570B504460D460CB9012070BDCB
:102140005A48006800F00700A8420ED257480068BD
:1021500020F007002843554908600846006800F051
:102160000700A84201D00120E9E7207800F0020032
:1021700002281DD1207800F00400042805D14C4825
:10218000406840F4E0604A494860207800F0080068
:10219000082805D14648406840F4605044494860EA
:1021A0004348406820F0F000A16808434049486077
:1021B000207800F0010078B36068012806D13C481F
:1021C000006800F4003090B90120B8E76068022888
:1021D00006D13748006800F0007040B90120AEE732
:1021E0003348006800F0020008B90120A7E7304832
:1021F000406820F00300616808432D494860FFF7FC
:10220000FDFA064609E0FFF7F9FA801B41F2883132
:10221000884202D9032092E707E02548406800F091
:102220000C006168B0EB810FEDD12048006800F030
:102230000700A8420ED91D48006820F00700284377
:102240001A4908600846006800F00700A84201D05B
:10225000012074E7207800F00400042807D1144816
:10226000406820F4E060E168084311494860207844
:1022700000F00800082808D10D48406820F460509C
:10228000216940EAC1000A49486000F061F8084944
:102290004968C1F30311074A515CC8400649086008
:1022A00006480068FFF75AFE002048E70020024079
:1022B0000010024076020108A40000209C000020CB
:1022C0000F2202600D4A526802F0030242600B4A7C
:1022D000526802F0F0028260084A526802F4E0623A
:1022E000C260064A526802F46052D2080261044A8F
:1022F000126802F007020A607047000000100240F6
:10230000002002400148006870470000A40000203F
:1023100000B5FFF7F7FF04494968C1F30221034AFA
:10232000515CC84000BD0000001002408602010858
:1023300000B5FFF7E7FF04494968C1F3C221034A2A
:10234000515CC84000BD0000001002408602010838
:1023500070B500210022002400230020134D69687D
:1023600001F00C05F5B1042D02D0082D19D101E0C2
:102370000F4819E00F4DC1F38346AB5D01F4803582
:1023800055B10A4D6D68C5F340450B4E725D084D61
:102390005D43B5FBF2F402E0084D03FB05F4204673
:1023A00002E000BF024800BF00BF70BD0010024045
:1023B00000127A00640201087402010800093D005D
:1023C000F8B504460CB90120F8BD207800F00100F2
:1023D000002878D0F848406800F00C0004280CD0A1
:1023E000F548406800F00C00082811D1F248406818
:1023F00000F48030B0F5803F0AD1EF48006800F467
:10240000003000285FD0606800285CD10120DBE745
:1024100000BF6068B0F5803F06D1E748006840F42F
:102420008030E549086028E0606858B9E2480068F3
:1024300020F48030E04908600846006820F48020DD
:1024400008601AE06068B0F5A02F0BD1DA48006888
:1024500040F48020D84908600846006840F4803085
:1024600008600AE0D448006820F48030D24908604F
:102470000846006820F48020086000BF606888B1CA
:10248000FFF7BCF9054606E0FFF7B8F9401B6428E2
:1024900001D9032098E7C848006800F400300028FC
:1024A000F2D010E0FFF7AAF9054606E0FFF7A6F91B
:1024B000401B642801D9032086E7BF48006800F468
:1024C00000300028F2D1207800F00200022857D115
:1024D000B948406800F00C0050B1B748406800F0BF
:1024E0000C00082818D1B448406800F4803098B92E
:1024F000B148006800F0020020B12069012801D035
:10250000012061E7AC48006820F0F800616940EA0A
:10251000C100A949086033E02069E8B10120A7495A
:102520000860FFF76BF9054606E0FFF767F9401B07
:10253000022801D9032047E79F48006800F0020005
:102540000028F2D09C48006820F0F800616940EA59
:10255000C1009949086013E0002098490860FFF71E
:102560004DF9054606E0FFF749F9401B022801D95D
:10257000032029E79048006800F002000028F2D10B
:10258000207800F0080008282DD1A069B8B10120FA
:102590008B490860FFF732F9054606E0FFF72EF990
:1025A000401B022801D903200EE78348406A00F04F
:1025B00002000028F2D0012001F0A2FC13E000206C
:1025C0007F490860FFF71AF9054606E0FFF716F99C
:1025D000401B022801D90320F6E67748406A00F044
:1025E00002000028F2D1207800F00400042873D102
:1025F00000277148C06900F0805070B900BF6E4874
:10260000C06940F080506C49C8610846C06900F05C
:102610008050009000BF00BF01276A48006800F4A6
:102620008070B0B96748006840F480706549086000
:10263000FFF7E4F8054606E0FFF7E0F8401B6428E2
:1026400001D90320C0E65F48006800F480700028CC
:10265000F2D000BFE068012806D15748006A40F078
:1026600001005549086227E0E06858B95248006AFD
:1026700020F00100504908620846006A20F004007A
:10268000086219E0E06805280BD14B48006A40F069
:102690000400494908620846006A40F001000862E7
:1026A0000AE04548006A20F00100434908620846F4
:1026B000006A20F00400086200BFE068A0B1FFF7E4
:1026C0009DF8054609E0FFF799F8401B41F2883173
:1026D000884202D9032077E622E03748006A00F0FA
:1026E00002000028EFD012E0FFF788F8054608E066
:1026F000FFF784F8401B41F28831884201D903205A
:1027000062E62D48006A00F002000028F0D1012F97
:1027100005D12948C06920F080502749C86100BF11
:10272000E069C8B32448406800F00C00082860D075
:10273000E069022848D1002020490866FFF75EF8CA
:10274000054606E0FFF75AF8401B022801D903208E
:102750003AE61948006800F000700028F2D1206ABB
:10276000B0F5803F07D11448406820F40030A168DC
:10277000084311494860D4E9080108430E494968F3
:1027800021F4741108430C49486001200B49086684
:10279000FFF734F8054607E03DE0FFF72FF8401B50
:1027A000022801D903200FE60348006800F00070FA
:1027B0000028F2D02FE0000000100240000042424A
:1027C0008004424200700040002014490866FFF770
:1027D00015F8054606E0FFF711F8401B022801D95D
:1027E0000320F1E50E48006800F000700028F2D1E7
:1027F00011E0E069012800D1E6E50948466806F4E1
:102800008031206A814204D106F47011606A8142ED
:1028100001D00120D8E50020D6E5000000004242AA
:102820000010024070B504460E4615461CB1A06962
:10283000B0F5807F01D1012070BD94F8410028B926
:10284000002084F84000204600F01FF804F1080141
:102850002068FEF785F93146A2682068FEF7BCF9CA
:102860002946236BD4E90102FEF758F9A1682068D4
:1028700050F8210040F00100A268216841F82200D0
:10288000012084F841000020D6E710B50446FEF789
:10289000BDFD10BD7047704710B50346002200BF54
:1028A00093F83C00012801D1022010BD012083F8DB
:1028B0003C0000BF22F0FF00CC6840EA040222F492
:1028C00040708C6840EA040222F480604C6840EA60
:1028D000040222F400600C6840EA040222F48050F2
:1028E0000C6940EA040222F400504C6940EA0402F8
:1028F00022F48040CC6940EA04021868426400BFB8
:10290000002083F83C0000BF00BFCEE730B5024690
:102910000B4600BF92F83C00012801D1022030BDD7
:10292000012082F83C0000BF022082F83D001068C0
:1029300044681068816824F07004186804431068C3
:102940004460144D1068A84213D0134D1068A8427B
:102950000FD01068B0F1804F0BD0104D1068A84216
:1029600007D00F4D1068A84203D00E4D1068A84242
:1029700005D121F080015868014310688160012071
:1029800082F83D0000BF002082F83C0000BF00BF7D
:10299000C5E70000002C0140003401400004004065
:1029A00000080040000C004010B504460CB901209E
:1029B00010BD94F83D0028B9002084F83C00204662
:1029C00000F026F8022084F83D00211D206801F067
:1029D000A1FC012084F8460000BF84F83E000121DC
:1029E0003F200155402001554120015500BF00BF47
:1029F000012084F842004320015544200155452020
:102A0000015500BF012084F83D000020D0E7000000
:102A100008B50168B1F1804F0DD100BF0F49C969F8
:102A200041F001010D4AD1611146C96901F001016E
:102A3000009100BF11E00A4A016891420DD100BF28
:102A40000649896941F40051044A91611146896936
:102A500001F40051009100BF00BF08BD001002400A
:102A600000340140014691F83D00012801D00120C9
:102A70007047022081F83D000868C06840F00100FE
:102A80000B68D860164B0868984213D0154B08683D
:102A900098420FD00868B0F1804F0BD0124B0868F5
:102AA000984207D0114B0868984203D0104B086831
:102AB00098420CD10868806800F00702062A0CD002
:102AC0000868006840F001000B68186005E00868BD
:102AD000006840F001000B6818600020C8E70000A3
:102AE000002C014000340140000400400008004078
:102AF000000C00402DE9F04104460D46002700BFC0
:102B000094F83C00012802D10220BDE8F0810120A8
:102B100084F83C0000BF022084F83D0020688668ED
:102B200026F0770626F47F462068866028685028BD
:102B300033D00CDC202850D004DC00284BD01028E7
:102B400051D149E0302849D040284CD139E06028A3
:102B50002DD0702807D0B0F5805F03D0B0F5005FAE
:102B600041D10DE041E0D5E902136A68206801F027
:102B700030FC2068866846F077062068866034E07E
:102B8000D5E902136A68206801F023FC2068806898
:102B900040F480402168886027E0EA68696820681E
:102BA00001F008FD5021206801F01EFC1DE0EA68DC
:102BB0006968206801F011FD6021206801F014FCB3
:102BC00013E0EA686968206801F0F4FC402120689D
:102BD00001F00AFC09E000BF00BF00BF29682068BF
:102BE00001F002FC01E0012700BF00BF012084F8D2
:102BF0003D0000BF002084F83C0000BF384684E759
:102C0000704710B5044620680069C0F34000D8B191
:102C10002068C068C0F34000B0B16FF002002168C6
:102C20000861012020772068806900F0030018B156
:102C30002046FFF7E5FF05E0204600F0D9F82046E2
:102C400000F08DF90020207720680069C0F3800033
:102C5000D8B12068C068C0F38000B0B16FF0040044
:102C600021680861022020772068806900F44070A4
:102C700018B12046FFF7C4FF05E0204600F0B8F881
:102C8000204600F06CF90020207720680069C0F32E
:102C9000C000D8B12068C068C0F3C000B0B16FF008
:102CA000080021680861042020772068C06900F0CE
:102CB000030018B12046FFF7A3FF05E0204600F00F
:102CC00097F8204600F04BF9002020772068006933
:102CD000C0F30010D8B12068C068C0F30010B0B1D4
:102CE0006FF0100021680861082020772068C06913
:102CF00000F4407018B12046FFF782FF05E020463F
:102D000000F076F8204600F02AF9002020772068AD
:102D1000006900F0010058B12068C06800F00100AF
:102D200030B16FF0010021680861204600F092F98F
:102D300020680069C0F3C01058B12068C068C0F3B3
:102D4000C01030B16FF08000216808612046FFF7A5
:102D5000A1FD20680069C0F3801058B12068C068E8
:102D6000C0F3801030B16FF0400021680861204648
:102D700000F07CF920680069C0F3401058B1206869
:102D8000C068C0F3401030B16FF0200021680861C6
:102D90002046FFF780FD10BD10B586B00446002028
:102DA00002900390049005900E492068884216D145
:102DB00000BF0D48806940F010000B49886108464B
:102DC000806900F01000019000BF00BF4020029019
:102DD00002200390059002A90448FEF761FB06B0AB
:102DE00010BD0000003401400010024000100140FE
:102DF00070472DE9F04104460D461646002700BFF6
:102E000094F83C00012802D10220BDE8F0810120A5
:102E100084F83C0000BF36B1042E1BD0082E31D000
:102E20000C2E5ED145E02946206801F0E7FA2068C3
:102E3000806940F00800216888612068806920F07E
:102E40000400216888612068806929690843216835
:102E5000886148E02946206801F008FB2068806905
:102E600040F40060216888612068806920F48060F7
:102E70002168886120688069296940EA0120216809
:102E8000886130E02946206801F02EFB2068C06987
:102E900040F008002168C8612068C06920F0040083
:102EA0002168C8612068C069296908432168C86130
:102EB00019E02946206801F053FB2068C06940F4FE
:102EC00000602168C8612068C06920F480602168C2
:102ED000C8612068C069296940EA01202168C86189
:102EE00001E0012700BF00BF00BF002084F83C00C4
:102EF00000BF384689E710B504460CB9012010BD63
:102F000094F83D0028B9002084F83C00204600F0E9
:102F100025F8022084F83D00211D206801F0FAF90F
:102F2000012084F8460000BF84F83E0001213F20C4
:102F30000155402001554120015500BF00BF01202F
:102F400084F8420043200155442001554520015595
:102F500000BF012084F83D000020D0E77047704793
:102F600070B504460D4615B994F83E000BE0042DEB
:102F700002D13F20005D06E0082D02D14020005D17
:102F800001E04120005D012801D0012070BD1DB984
:102F9000022084F83E000EE0042D03D102213F20E0
:102FA000015508E0082D03D102214020015502E01F
:102FB00002214120015501222946206801F0F8F93B
:102FC0001F492068884203D01E492068884201D1E9
:102FD000012000E0002028B12068406C40F400404F
:102FE0002168486416492068884213D01549206832
:102FF00088420FD02068B0F1804F0BD01249206872
:10300000884207D011492068884203D010492068BF
:1030100088420CD12068806800F00706062E0CD08C
:103020002068006840F001002168086005E0206821
:10303000006840F00100216808600020A6E7000059
:10304000002C014000340140000400400008004012
:10305000000C004010B5044603492068884201D1A5
:10306000FEF75CFF10BD0000001000407047704785
:103070002DE9F0470446206805682068C668206886
:1030800047694FF00008C14605F00F08B8F1000F7E
:1030900012D105F0200078B106F0200060B194F85C
:1030A0003D00222803D1204601F0EEFA02E020463E
:1030B00001F01CFCBDE8F087B8F1000F7AD007F0F2
:1030C000010018B906F49070002873D005F00100D3
:1030D00030B106F4807018B1206C40F0010020641B
:1030E00005F0040030B107F0010018B1206C40F089
:1030F0000200206405F0020030B107F0010018B1B1
:10310000206C40F00400206405F0080048B106F08F
:10311000200010B907F0010018B1206C40F0080041
:103120002064206C002844D005F0200068B106F02F
:10313000200050B194F83D00222803D1204601F030
:10314000A3FA02E0204601F0D1FB20684069C0F3F9
:103150008019206C00F0080010B9B9F1000F23D0DD
:10316000204601F06BFA2068406900F04000B8B1D9
:103170002068406920F0400021684861A06B50B190
:103180001B48A16B4863A06BFDF746FE88B1A06B9E
:10319000416B88470DE02046FFF769FF09E009E031
:1031A0002046FFF764FF04E02046FFF760FF0020A1
:1031B00020647FE705F0800070B106F0800058B110
:1031C00094F83D00122803D1204601F00EFC02E0E5
:1031D000204601F08BFB6DE705F0400030B106F0B2
:1031E000400018B1204601F039FA63E700BF61E7FB
:1031F0002946000810B504460CB9012010BD94F80A
:103200003D0028B9002084F83C00204600F020F85A
:10321000022084F83D00204601F08AFA2068006907
:1032200020F48040216808612068406920F02A006D
:10323000216848612068C06840F400502168C86077
:1032400000202064012084F83D000020D6E7000023
:1032500010B586B0044600200290039004900590BB
:103260003849206888426AD100BF3748806940F4F5
:103270008040354988610846806900F480400190AB
:1032800000BF00BF00BF0846806940F004008861AD
:103290000846806900F00400019000BF00BF4FF4B1
:1032A00040700290022003900320059002A9274855
:1032B000FEF7F6F84FF4806002900020039004902F
:1032C00002A92248FEF7ECF82148224908600020B4
:1032D000486000211F4881608021C1600021016198
:1032E00041618161C161FEF737F808B1FDF713FC58
:1032F00000BF1848A063446200BF1548143816493F
:103300000860102048600021134881608021C1605E
:103310000021016141618161C161FEF71DF808B1C1
:10332000FDF7F9FB00BF0C486063446200BF002258
:1033300005212520FEF7ACFE2520FEF799FE06B0FC
:1033400010BD00000038014000100240000801409C
:1033500058000240BC0200200003002070472DE905
:10336000F84F04460E461746994694F83D0001284A
:1033700059D106B117B90120BDE8F88F00BF94F804
:103380003C00012801D10220F6E7012084F83C002E
:1033900000BF00202064122084F83D00FEF72EFAC2
:1033A000824627856785A068B0F5805F04D12069D3
:1033B00010B90025B04602E035464FF000081BE08A
:1033C0005346002280212046CDF8009001F03DFBBD
:1033D00008B10320D0E745B9B8F80000C0F30800F1
:1033E0002168486008F1020803E0287821684860F5
:1033F0006D1C608D401E6085608D0028E0D15346B5
:10340000002240212046CDF8009001F01EFB08B1BB
:103410000320B1E7012084F83D0000BF002084F8BC
:103420003C0000BFA8E70220A6E77047704700BF36
:10343000FEE7014608684069C0F38020B0B16FF430
:1034400080600A68506100200863202081F83D00F8
:10345000002081F83E00086C40F00400086400BFC2
:10346000002081F83C0000BF012070470020FCE7ED
:103470002DE9F84304460F4615469946DDE90886CE
:103480002068006840F48060216808602068006857
:1034900040F4807021680860434600224FF001111B
:1034A0002046009600F037F960B12068006800F40B
:1034B0008070B0F5807F02D14FF40070206403204B
:1034C000BDE8F88307F0FE002168086133464246F4
:1034D0003E49204600F07EF908B10120F0E700BF28
:1034E000002000902068406900902068806900906A
:1034F00000BF00BF32464146204600F02DFA50B1D1
:10350000206C042805D12068006840F40070216810
:1035100008600120D4E7B9F1010F03D1E8B22168B6
:10352000086117E0C5F3072021680861324641466B
:10353000204600F011FA50B1206C042805D1206813
:10354000006840F40070216808600120B8E7E8B224
:103550002168086132464146204600F0FDF950B12D
:10356000206C042805D12068006840F400702168B0
:1035700008600120A4E72068006840F4807021689A
:103580000860434600224FF001112046009600F0EB
:10359000C2F858B12068006800F48070B0F5807FF0
:1035A00002D14FF400702064032089E7F8B240F0A4
:1035B000010021680861334642460449204600F074
:1035C00009F908B101207BE7002079E7020001003A
:1035D0002DE9F8430446884615469946DDE9086713
:1035E0002068006840F4807021680860334600223B
:1035F0004FF001112046009700F08DF860B120686F
:10360000006800F48070B0F5807F02D14FF4007044
:1036100020640320BDE8F88308F0FE0021680861FB
:103620003B4632462149204600F0D4F808B101203B
:10363000F0E700BF002000902068406900902068FB
:103640008069009000BF00BF3A463146204600F036
:1036500083F950B1206C042805D12068006840F43B
:103660000070216808600120D4E7B9F1010F03D18F
:10367000E8B22168086117E0C5F3072021680861F6
:103680003A463146204600F067F950B1206C0428D4
:1036900005D12068006840F40070216808600120AE
:1036A000B8E7E8B2216808610020B3E70200010032
:1036B00070B504460D46164625E02046FFF7B9FED4
:1036C00008B1012070BD681CE8B1FEF797F8801BB7
:1036D000A84200D8BDB920684069C0F3800090B905
:1036E00000202063202084F83D00002084F83E0064
:1036F000206C40F02000206400BF002084F83C00D3
:1037000000BF0120DEE720684069C0F38000002888
:10371000D3D00020D6E72DE9F04104460D461746E8
:103720001E46DDF8188038E0701CA8B3FEF766F876
:10373000A0EB0800B04200D876BBC5F307400128D3
:103740000AD120684069A9B20840A9B2884201D1D3
:1037500001200BE0002009E020688069A9B2084040
:10376000A9B2884201D1012000E00020B84214D162
:1037700000202063202084F83D00002084F83E00D3
:10378000206C40F02000206400BF002084F83C0042
:1037900000BF0120BDE8F081FFE7C5F30740012825
:1037A0000AD120684069A9B20840A9B2884201D173
:1037B00001200BE0002009E020688069A9B20840E0
:1037C000A9B2884201D1012000E00020B842ABD06C
:1037D0000020DFE72DE9F04104460D4616461F465E
:1037E00058E020684069C0F38020E8B12068006894
:1037F00040F40070216808606FF4806021684861BF
:1038000000202063202084F83D00002084F83E0042
:10381000206C40F00400206400BF002084F83C00CD
:1038200000BF0120BDE8F081701C90B3FDF7E6FFFA
:10383000C01BB04200D866BBC5F3074001280AD1BF
:1038400020684069A9B20840A9B2884201D101208C
:103850000BE0002009E020688069A9B20840A9B205
:10386000884201D1012000E0002090B900202063AF
:10387000202084F83D00002084F83E00206C40F0B9
:103880002000206400BF002084F83C0000BF01201D
:10389000C8E7FFE7C5F3074001280AD1206840695F
:1038A000A9B20840A9B2884201D101200BE0002052
:1038B00009E020688069A9B20840A9B2884201D114
:1038C000012000E0002000288BD00020AAE770B57E
:1038D00004460D46164637E020684069C0F30010E4
:1038E000A0B16FF010002168486100202063202003
:1038F00084F83D00002084F83E00206C206400BF66
:10390000002084F83C0000BF012070BDFDF776FF69
:10391000801BA84200D8BDB920684069C0F3801060
:1039200090B900202063202084F83D00002084F816
:103930003E00206C40F02000206400BF002084F88E
:103940003C0000BF0120E0E720684069C0F3801020
:103950000028C1D00020D8E770B504460D461646B1
:1039600025E02046FFF765FD08B1012070BD681C09
:10397000E8B1FDF743FF801BA84200D8BDB920681D
:103980004069C0F3C01090B900202063202084F863
:103990003D00002084F83E00206C40F020002064B0
:1039A00000BF002084F83C0000BF0120DEE7206853
:1039B0004069C0F3C0100028D3D00020D6E7000033
:1039C00010B50D480D4908601020486000210B48D3
:1039D0008160C1604FF4C021016100214161017625
:1039E00041768176C17601774177FDF716F908B106
:1039F000FDF791F810BD0000006400402401002094
:103A000008B500BF0E48406940F001000C4948610C
:103A10000846406900F00100009000BF00BF00228E
:103A200005210E20FEF734FB0E20FEF721FB0022BD
:103A300005210F20FEF72CFB0F20FEF719FB08BD18
:103A40000010024010B5214806F098F9204908609E
:103A5000204806F093F920490860204A00210120FF
:103A600006F0F4F91E4908601E4A0221084606F0D5
:103A7000EDF91D4908601D4B002201211C4806F08C
:103A8000C9FA1C4908601C4A0221102006F01AF9E4
:103A90001A4908601A4A00211A4806F04DFA1A49D4
:103AA00008601A4A00211A4806F046FA19490860C7
:103AB000194A0021194806F03FFA194908601948C7
:103AC00006F074F81849086010BD000054CE0008D4
:103AD0002000002064CE00082400002074CE0008DE
:103AE0002800002084CE00082C00002044CE0008CE
:103AF0001F0A00081C0000202CCE0008180000201F
:103B0000C0CD0008293F00080C000020E4CD0008CB
:103B10000D4000081000002008CE0008713F00088A
:103B20001400002094CE00083000002000B58FB0B3
:103B30001C2108A8FCF78FFB1C2101A8FCF78BFBBC
:103B40004FF02040234908602348486006208860E1
:103B500000212048C1600161102141610021816183
:103B6000C161016241624FF4805181620021C162F2
:103B70004FF480410163002141638163022008907A
:103B80000F20099010200A9000200B9010200C901C
:103B900011200D9000200E90042001900F20029023
:103BA0000920039000200490102005901120069019
:103BB0000020079001AA08A90648FEF733FE08B1C5
:103BC000FCF7A9FF0548C06940F480600349C8615B
:103BD0000FB000BD4C010020040100A00000014016
:103BE00000B585B00020019002900390049000BFC2
:103BF0005148806940F040004F498861084680691B
:103C000000F04000009000BF00BF00BF0846806980
:103C100040F0040088610846806900F004000090CC
:103C200000BF00BF00BF0846806940F008008861FF
:103C30000846806900F00800009000BF00BF00BF88
:103C40000846806940F4807088610846806900F405
:103C50008070009000BF00BF00BF0846806940F040
:103C6000200088610846806900F02000009000BFB5
:103C700000BF00BF0846806940F010008861084618
:103C8000806900F01000009000BF00BF00222021DA
:103C90002A48FDF7ADFD002240F201112848FDF74A
:103CA000A7FD012220212648FDF7A2FD1820019042
:103CB000002002900120039001A92048FDF7F0FBAD
:103CC0002020019001200290002003900120049008
:103CD00001A91A48FDF7E4FB0120019000200290A1
:103CE0000220039001A91748FDF7DAFB012001909B
:103CF000029002200390049001A91148FDF7D0FB27
:103D000020200190012002900020039001200490C7
:103D100001A90B48FDF7C4FB4FF48070019001200E
:103D20000290002003900220049001A90448FDF7AE
:103D3000B7FB05B000BD00000010024000180140B4
:103D4000000C01400008014010B50B480B49086009
:103D50000B484860002109488160C1604FF48041F0
:103D60000161002141618161C1610162FDF750FD86
:103D700008B1FCF7D0FE10BD0054004094010020B3
:103D8000A086010000B587B0002003900490059044
:103D90000690019002904FF0804013490860472040
:103DA00048600021104881606321C16000210161E9
:103DB0008161FEF7F9FD08B1FCF7ADFE4FF48050CC
:103DC000039003A90848FEF795FE08B1FCF7A3FE8F
:103DD00000200190029001A90348FEF797FD08B169
:103DE000FCF799FE07B000BDE801002000B595B0D2
:103DF000002011901290139014900F9010901C219D
:103E000008A8FCF728FA20216846FCF724FA2A487B
:103E10002A490860232048600021284881606321E6
:103E2000C1600021016141618161FEF7BDFD08B102
:103E3000FCF771FE4FF48050119011A91F48FEF756
:103E400059FE08B1FCF767FE1C48FFF754F808B1AB
:103E5000FCF761FE00200F9010900FA91748FEF7A5
:103E600055FD08B1FCF757FE60200890002009902E
:103E70000A900B900C900D900E90002208A90F480C
:103E8000FEF7B7FF08B1FCF746FE00200090019056
:103E90000290039004904FF400500590002007908A
:103EA00069460648FEF7F8FC08B1FCF734FE034803
:103EB000FEF772FF15B000BD003401403002002053
:103EC00010B50B480B4908604FF4E1304860002101
:103ED00008488160C16001610C214161002181615C
:103EE000C1610162FFF786F908B1FCF714FE10BD4D
:103EF000003801407802002000BFFEE700BFFEE767
:103F000008B508490968C9084FF47A72B1FBF2F1A3
:103F10004143009100BF00BF00994A1E0092002952
:103F2000F9D108BDA400002000BF0CA000F0D0FD16
:103F3000002220210D48FDF75BFC4FF47A7005F05C
:103F400019FE012220210948FDF752FC4FF47A7036
:103F500005F010FE012005F00DFEE6E74465666100
:103F6000756C745461736B0A00000000000C014012
:103F70001CB500BFC82005F0FDFD012002F0FCF8D3
:103F80000446002C3CD0012C04D0022C0CD0032C75
:103F900018D113E01B480088642804DA1948008807
:103FA000401C184908800DE016480088002804DDF0
:103FB00014480088401E1349088003E0002011497E
:103FC000088000BF00BF0F4800880F490968486398
:103FD0004FF6FF70E6234FF4AF72C82100904FF404
:103FE0008C7004F001FF4FF4784018210323CDE9D1
:103FF000001004480288C8214FF48C7005F004FCBE
:10400000B8E7000008000020300200200EB54FF68F
:10401000FF7002F00BF94FF4784064231A46002138
:104020000090084604F0E0FE4FF4FC6064234FF477
:10403000F072002100904FF4BE7004F0D5FE1F20F6
:104040004FF4487364224FF42F710090002004F065
:10405000CBFE4FF6E0704FF448734FF4F0724FF41C
:104060002F7100904FF4BE7004F0BEFE72480088BD
:1040700080B21F2171A31822CDE900103221B42093
:1040800005F07AFB002070A118221E23CDE9002143
:104090000290C8221146962005F084FC4FF4FC6083
:1040A0004FF4BE73C8224FF496710090322002F094
:1040B0005BFA4FF4FC604FF4BD73C6224FF4977166
:1040C0000090342004F090FE4FF4FC605A490860E0
:1040D0000846008880B200215EA31822CDE90010B6
:1040E0004FF4A5716E2005F047FB1F204FF4BE73FF
:1040F0004FF4C8724FF496710090FA2002F034FA2F
:104100001F204FF4BD734FF4C7724FF497710090A6
:10411000FC2004F069FE1F2047490860084600881B
:1041200080B24FF6FF714CA31822CDE900104FF476
:10413000A5714FF49B7005F01FFB4FF478404FF4CE
:10414000FA734FF4AA724FF4D27100906E2002F00D
:104150000BFA4FF478404FF4F9734FF4A9724FF40F
:10416000D3710090702004F03FFE4FF47840324944
:1041700008600846008880B24FF6FF7137A3182206
:10418000CDE900104FF4E171D22005F0F5FA4FF6B9
:10419000FF70294908604FF4784018210323CDE9C6
:1041A00000102F480288C8214FF48C7005F02CFBBA
:1041B00000BFFCF735FC0446002C3CD0012C04D099
:1041C000022C0CD0032C18D113E025480088642859
:1041D00004DA23480088401C214908800DE020486B
:1041E0000088002804DD1E480088401E1C49088005
:1041F00003E000201A49088000BF00BF4FF6FF709F
:10420000E6234FF4AF72C82100904FF48C7004F095
:10421000EBFD4FF4784018210323CDE9001010483E
:104220000288C8214FF48C7005F0EEFA0C48008823
:104230000C4909684863BCE748000020B7E7BBFAAF
:1042400050574DBFD8D6C60050574D2056616C759B
:10425000653A0000BFEC0000C2FD0000CDA30000E5
:10426000080000203002002010B500BF502080F36D
:104270001188BFF34F8FBFF36F8F00BF08F00CFBA7
:1042800018B14FF080500449086000BF002080F34F
:10429000118800BF10BD000004ED00E000B58FB034
:1042A000282105A8FBF7D7FF14216846FBF7D3FFA9
:1042B000012005900004069000200790012009903D
:1042C00002200C90C1030D914FF4E0110E9105A84E
:1042D000FEF776F808B1FCF71EFC0F2000900220D4
:1042E0000190002002904FF4806003900020049021
:1042F00002216846FDF71EFF08B1FCF70CFC0FB069
:1043000000BD704710B50248FEF77BFC10BD0000F1
:104310004403002010B50268204B98420ED0204B79
:1043200098420BD0B0F1804F08D01E4B984205D078
:104330001D4B984202D01D4B984203D122F07002CF
:104340004B681A43154B98420ED0154B98420BD030
:10435000B0F1804F08D0134B984205D0124B9842D1
:1043600002D0124B984203D122F44072CB681A4318
:1043700022F080034C6943EA040202608B68C36246
:104380000B688362054B984202D0054B984201D1DD
:104390000B6903630123436110BD0000002C014041
:1043A000003401400004004000080040000C0040C0
:1043B00030B501F01F05012404FA05F3046A9C439B
:1043C0000462046A01F01F0502FA05F52C43046239
:1043D00030BD30B50C46816821F47F4142EA0325A7
:1043E00025432943816030BD0A46816821F0700170
:1043F00042F00703194381607047000030B5026A3C
:10440000056A25F0010505624368846924F070049B
:1044100024F003040D682C4322F002028D682A4325
:10442000104DA84200D103E00F4DA84206D100BFB5
:1044300022F00802CD682A4322F00402094DA84266
:1044400002D0094DA84207D123F4807323F40073EE
:104450004D692B438D692B43436084614D684563EF
:10446000026230BD002C01400034014030B5026AC8
:10447000056A25F0100505624368846924F4E04468
:1044800024F440740D6844EA052422F020028D686B
:1044900042EA0512124DA84200D103E0114DA84294
:1044A00007D100BF22F08002CD6842EA051222F057
:1044B00040020B4DA84202D00A4DA84209D123F474
:1044C000806323F400634D6943EA85038D6943EA01
:1044D0008503436084614D688563026230BD0000DE
:1044E000002C01400034014030B5026A056A25F411
:1044F000807505624368C46924F0700424F00304E5
:104500000D682C4322F400728D6842EA0522124D98
:10451000A84200D103E0114DA84207D100BF22F408
:104520000062CD6842EA052222F480620A4DA84268
:1045300002D00A4DA84209D123F4805323F400533A
:104540004D6943EA05138D6943EA05134360C4616D
:104550004D68C563026230BD002C0140003401404B
:1045600030B5036A056A25F4805505624468C2695E
:1045700022F4E04222F440720D6842EA052223F45C
:1045800000538D6843EA0533084DA84202D0084D18
:10459000A84204D124F480444D6944EA851444605F
:1045A000C2614D680564036230BD0000002C01400B
:1045B0000034014030B50B461446026A056A25F006
:1045C00001050562816921F0F00141EA041122F040
:1045D0000A021A438161026230BD30B50B461446AF
:1045E000026A056A25F010050562816921F47041AF
:1045F00041EA043122F0A00242EA03128161026220
:1046000030BD70B50546284606F022FB044614B1BD
:10461000D4E90010884770BD10B50248FEF728FDA8
:1046200010BD00007802002070B505466C6A0020BD
:10463000608660852046FEF71AFD70BD0168C96876
:1046400021F490710268D1600168496921F001018B
:1046500002685161012180F83D10704710B5044691
:104660002068C06820F040002168C8602068406968
:1046700020F0010021684861012084F83D002046B7
:10468000FEF7D3FE002010BD70B5044694F83D003F
:1046900022284AD1A068B0F5805F0CD1206950B9BA
:1046A0000025E66A20684068C0F308003080E06AB0
:1046B000801CE06215E0E56A0026A068B0F5805F26
:1046C00003D0A06828B9206918B92068406828700C
:1046D00004E02068406800F07F002870E06A401C19
:1046E000E062608E401E6086608EC8B92068C06837
:1046F00020F020002168C8602068C06820F4807025
:104700002168C8602068406920F001002168486184
:10471000012084F83D002046FEF720FE002070BDF9
:10472000FF20216848600020F9E70220F7E7000039
:1047300070B5044600252168C96821F00C01226883
:10474000D16021680D6925F47C55A16941F40061AF
:10475000E2691143226A1143E26811430D43216863
:104760000D612168CD6841F20C618D432269A16819
:104770001143626911430D432168CD602168496985
:1047800021F4407122685161574A2168914255D104
:10479000FDF7CEFD00EBC00101EB00116268920055
:1047A000B1FBF2F16422B1FBF2F10A0100EBC001AE
:1047B00001EB001163689B00B1FBF3F100EBC00358
:1047C00003EB00136668B600B3FBF6F36426B3FB95
:1047D000F6F303EBC30606EB0313A1EB83013223CD
:1047E00003EB01116423B1FBF3F101F0F00102EBE3
:1047F000410200EBC00101EB001163689B00B1FBBB
:10480000F3F100EBC00303EB00136668B600B3FBE3
:10481000F6F36426B3FBF6F303EBC30606EB0313D0
:10482000A1EB8301322303EB01116423B1FBF3F10C
:1048300001F00F0111442268916054E0FDF768FD1A
:1048400000EBC00101EB001162689200B1FBF2F1D4
:104850006422B1FBF2F10A0100EBC00101EB00118F
:1048600063689B00B1FBF3F100EBC00303EB0013A3
:104870006668B600B3FBF6F36426B3FBF6F303EB0E
:10488000C30606EB0313A1EB8301322303EB0111F3
:104890006423B1FBF3F101F0F00102EB410200EB04
:1048A000C00101EB001163689B00B1FBF3F100EB69
:1048B000C00303EB00136668B600B3FBF6F364268F
:1048C000B3FBF6F303EBC30606EB0313A1EB830183
:1048D000322303EB01116423B1FBF3F101F00F016B
:1048E00011442268916070BD0038014070B50446E3
:1048F00094F83D00322876D1608D28B32068006896
:10490000C0F3C01000B3A068B0F5805F0BD1206980
:1049100048B9656A2888C0F3080021684860606A61
:10492000801C606205E0616A481C6062087821684A
:104930004860608D401E6085608D28B92068C06821
:1049400020F080002168C860608E68B3206800682D
:10495000C0F3401040B3A068B0F5805F0BD1206970
:1049600048B9E66A20684068C0F308003080E06A11
:10497000801CE06215E0A068B0F5805F03D0A068FD
:1049800030B9206920B920684068E16A087005E004
:104990002068406800F07F00E16A0870E06A401C0F
:1049A000E062608E401E6086608ED0B92068C0686C
:1049B00020F020002168C8602068C06820F4807062
:1049C0002168C8602068406920F0010021684861C2
:1049D000012084F83D002046FEF728FD002070BD30
:1049E00001E00020FBE70220F9E7014691F83D00D5
:1049F000122828D18868B0F5805F0BD1086948B9C2
:104A00004A6A1088C0F308000B685860486A801C26
:104A1000486205E04B6A581C486218780B68586079
:104A2000488D401E80B2488558B90868C06820F09B
:104A300080000B68D8600868C06840F040000B68D0
:104A4000D860002070470220FCE72DE9F0410446C1
:104A50000D4617469846069E2BE0701C48B32EB1B3
:104A6000FCF7CCFEA0EB0800B04222D92068C06859
:104A700020F080002168C8602068C06820F0200015
:104A80002168C8602068C06820F480702168C86010
:104A90002068406920F0010021684861012084F805
:104AA0003D0000BF002084F83C0000BF0320BDE8AB
:104AB000F081206800682840A84201D1012000E070
:104AC0000020B842C9D00020F1E700BFFEE7000097
:104AD0000FB4054B10B503A9044A029800F012F96F
:104AE00010BC5DF814FB0000A55800082001002050
:104AF0000FB4084B10B504A902AA039800F002F9FC
:104B0000044602A9002000F080FC204610BC5DF89D
:104B100014FB00000B54000802480068C0F3022098
:104B2000704700000CED00E010B5002804DB0A0718
:104B3000130E054A135406E00A07140E034A00F048
:104B40000F031B1FD45410BD00E400E018ED00E07B
:104B5000EFF311807047EFF305807047EFF310809B
:104B6000704702E008C8121F08C1002AFAD1704736
:104B70007047002001E001C1121F002AFBD17047DD
:104B80002DE9FF5F82B00021DDE90430020DDDF880
:104B900040B0034318D044F61050A2F2FF32424313
:104BA0001514119801281FD0A5EB0B00401C5FEADB
:104BB000000A4FF000064E4FDFF83891B0465046DD
:104BC00015D5CAF1000413E0119801244AA3012865
:104BD00001D16FEA0B010298119AC0E90031C0E9D6
:104BE000024206B0BDE8F09FCBF10000DFE70446CB
:104BF0000021404A491842EB0450CDE9001012E070
:104C0000E00707D032463B4640464946FBF7D2FB19
:104C10008046894632463B4610461946FBF7CAFB9A
:104C200006460F466410002CEAD1DDE90401DDE9F7
:104C30000023BAF1000F06DAFBF7BCFB42464B46F5
:104C4000FBF7B8FB05E0FBF727FC42464B46FBF7BA
:104C500023FC04460E460022284BFBF7F9FC03D840
:104C60004FF0FF30014607E00022254B2046314639
:104C7000FBF7E1FDFBF786FE102409E0002C0ADBC0
:104C80000A220023FBF712FD039B30321A55641EE3
:104C900050EA0102F2D1641C039AC4F111031444D6
:104CA000119A012A03D0012208430DD10AE00843DA
:104CB00004D000204FF0110B119072E7A3EB0B050D
:104CC0006D1E0DE05B4504DD4FF0000205F10105AE
:104CD00004E003DA4FF00002A5F10105002AECD050
:104CE00002981199C0E90231C0E9004579E7000056
:104CF000000014400000F03F300000000000F043CE
:104D00000000E03F2DE9FF4F95B09A4688460646E1
:104D10000025EEE1252877D100242746F94A012114
:104D2000039400E0044316F8013F203B01FA03F02E
:104D30001042F7D130782A2811D06FF02F03307845
:104D4000A0F13002092A16D8039A44F0020402EBBB
:104D5000820203EB42021044761C0390EFE758F8FE
:104D6000042B0392002A03DA504244F400540390C7
:104D700044F00204761C30782E2816D116F8010F64
:104D800044F004042A280DD06FF02F023078A0F1EF
:104D90003003092B09D807EB870302EB4303C7183D
:104DA000761CF3E758F8047B761C30786C280FD01B
:104DB00006DC4C2817D068280DD06A2814D104E0EE
:104DC000742810D07A280FD10DE044F400140AE0C2
:104DD00044F4801401E044F440147278824202D119
:104DE00004F58014761C761C307866280BD013DC12
:104DF000582877D009DC002875D04528F6D04628F9
:104E0000F4D047281AD193E118E0632835D06428FC
:104E100079D0652812D18BE1702873D008DC67281F
:104E2000F1D069286FD06E280DD06F2806D1ACE084
:104E300073282CD0752874D0782853D052461799EF
:104E400090476D1C54E1C4F30250022809D0032896
:104E50000DD0D8F8001004280DD00D6008F104081A
:104E600046E1D8F80010EA17C1E90052F6E7D8F891
:104E700000100D80F2E70D70F0E718F8041B8DF8B4
:104E8000001000208DF80100EB46012003E058F8E7
:104E900004BB4FF0FF3061074FF0000102D40DE07A
:104EA00009F101018946B9420FDA8145F8DB1BF8A7
:104EB00009100029F4D108E009F101018946814275
:104EC000FADB1BF809100029F6D103985346A0EB32
:104ED000090721463846179A00F080FA284400EB6B
:104EE000090507E044E008E10DE01BF8010B52461C
:104EF00017999047B9F10109F7D253462146384630
:104F0000179AF2E039E00A21C4F302524FF0000B85
:104F10000091022A06D058F8040BC117032A09D0C1
:104F20000AE023E008F1070020F00702F2E802019E
:104F3000904605E000B2C117042A01D140B2C11762
:104F4000002906DA0A460021404261EB02012D22C7
:104F500002E0220504D52B228DF80420012203E073
:104F6000E20701D02022F7E7914657E00A2100E04E
:104F700010214FF0000B00910BE010214FF0000BBF
:104F800044F004040827009103E008204FF0000BD0
:104F90000090C4F30252022A05D058F8040B0021F5
:104FA000032A08D008E008F1070020F00702F2E821
:104FB0000201904603E080B2042A00D1C0B24FF053
:104FC000000922072AD53278702A07D0DDF800C000
:104FD0008CF0100C5CEA0B0C05D00EE040228DF832
:104FE0000420012208E050EA010306D030238DF8A6
:104FF00004308DF8052002229146009B83F00803BF
:1050000053EA0B030AD150EA010201D1620705D528
:1050100030228DF804204FF001097F1E3278582A83
:1050200004D039A20C920CAA02920BE03BA2F9E741
:105030005B46009AFBF73AFB0C9B9B5C029A521E64
:105040000292137050EA0102F2D1029804A9081AE0
:1050500000F1200B600702D524F4803400E0012722
:105060005F4502DDA7EB0B0000E0002000EB0B0129
:10507000009003984944401A0390E00306D4534635
:105080002146179A039800F0A9F90544002706E085
:1050900001A85246C05D179990476D1C7F1C4F4573
:1050A000F6DBE0030CD553462146179A039800F02F
:1050B00095F9054404E030205246179990476D1C3D
:1050C0000099481E00900029F5DC08E0029802993A
:1050D00052460078491C0291179990476D1CBBF10C
:1050E0000001ABF1010BF1DC5BE100F065F9054477
:1050F000761C307800287FF40DAE19B02846BDE844
:10510000F08F000009280100303132333435363752
:105110003839616263646566000000003031323303
:1051200034353637383941424344454600000000A3
:10513000600700D4062708F1070020F00700F0E818
:105140000223804603F0004C5FEA0C0001D097A0D8
:1051500009E0200501D596A005E0E00701D095A063
:1051600001E0AFF24C001390307823F00043652843
:105170000CD006DC452809D046281DD047287FD111
:105180003BE0662818D067287AD136E00021112F3D
:1051900001DB112000E0781CCDE9000104A90CA876
:1051A000FFF7EEFCDDE90D010C9A4FF0000B07F163
:1051B0000109109200914EE04FF000400097CDE9B8
:1051C000011004A90CA8FFF7DBFCDDE90D020C9B24
:1051D0000F994FF0000B91461093009211B9791C72
:1051E00000EB0109B7EB090003D4C0F1FF3B07F165
:1051F0000109A9EB0700019042E0012F00DA012725
:105200000021112F01DD112000E03846CDE9000119
:1052100004A90CA8FFF7B4FCDDE90D010C9A00917C
:105220004FF0000BB946109221070FD4009A4A455F
:1052300003DA914601E0A9F10109B9F1010F05DD99
:10524000109AA9F10101515C3029F4D0B84202DA78
:1052500010F1040F03DA0121CDE9011010E000285C
:1052600003DC8344A9EB000102E0411C494500DD59
:105270008946A0EB0B00401C01904FF000400290CB
:10528000200705D40198484502DB4FF0FF3001901C
:1052900000208DF84B0002980DF14B07B0F1004F44
:1052A00025D002200C902B200D90029800280CDABB
:1052B000404202902D200D9007E00A210298FBF752
:1052C000DFF93031029007F8011D0C99481E0C904F
:1052D0000029F2DC02980028EFD1791E0D980870A1
:1052E000307800F0200040F0450007F8020D11A8CA
:1052F000C01BC01D02901398007800B1012000EB84
:105300000901019801EBE071029801440398401AE9
:10531000401E0390E00306D453462146179A039893
:1053200000F05CF805441398007818B152461799BC
:1053300090476D1CE00323D553462146179A0398E6
:1053400000F04CF805441BE0BBF1000F07DB0098B0
:10535000584504DD1098179910F80B0001E01799D3
:1053600030205246904701980BF1010B401E05F189
:105370000105019004D12E205246179990476D1CCB
:10538000B9F10001A9F10109DEDC05E017F8010B14
:105390005246179990476D1C0299481E02900029A9
:1053A000F4DC53462146179A03989EE62D00000030
:1053B0002B000000200000002DE9F04104460025EC
:1053C0001E461746880404D405E039462020B0471D
:1053D0006D1C641EF9D52846BDE8F0812DE9F04129
:1053E000044600251E469046C80301D5302700E03C
:1053F0002027880404D505E041463846B0476D1C97
:10540000641EF9D52846BDE8F0810A68531C0B607C
:105410001070704710B50648FCF7F6F9202803D144
:1054200004A0FFF755FB02E00AA0FFF751FB10BDF7
:10543000940100204932433120696E697469616CBE
:10544000697A6564207375636365737366756C6CE4
:10545000790A00004932433120696E697469616CD0
:10546000697A6174696F6E206661696C65640A00AF
:10547000FEB504460D461646642001232246A121AE
:10548000CDE9005602900248FCF7AAFAFEBD0000E2
:10549000940100201FB504460020039064200121E0
:1054A00003AA0B46CDE9002102902246A121034820
:1054B000FCF796FA9DF80C0004B010BD9401002092
:1054C000FEB504460D461646642001232246A0215F
:1054D000CDE9005602900348FCF734FC0A20FBF7A4
:1054E00081FFFEBD9401002013B584B00446642002
:1054F000012105AA0B46CDE9002102902246A021F8
:105500000348FCF71FFC0A20FBF76CFF06B010BD38
:105510009401002010B500BF00224FF40071114823
:10552000FCF766F900BF00F021F800BF012202215C
:105530000D48FCF75DF900BF00F018F800BF00222D
:1055400002210948FCF754F900BF00F00FF800BF32
:10555000012251020348FCF74BF900BF00F006F8A6
:1055600010BD0000001C0140000C014010B50220DD
:10557000FBF738FF10BD000000B585B000BF00BFCD
:105580001A48806940F00800184988610846806917
:1055900000F00800009000BF00BF00BF00BF00BFC8
:1055A0000846806940F0800088610846806900F004
:1055B0008000009000BF00BF00BF022001900120CA
:1055C000029003900320049001A90948FBF768FFAB
:1055D0004FF4007001901120029001A90548FBF7DB
:1055E0005FFF00F0BFF805B000BD000000100240F2
:1055F000000C0140001C014010B500BF0122510207
:105600000C48FCF7F5F800BFFFF7B0FF00BF012220
:1056100002210948FCF7ECF800BFFFF7A7FF00BF25
:10562000002202210448FCF7E3F800BFFFF79EFFC9
:1056300010BD0000001C0140000C014070B5054683
:10564000002400261DE06006040E00BF0122022196
:105650001148FCF7CDF800BFFFF788FF4FF4007149
:105660000E48FCF7BDF808B1601CC4B200BF0022B0
:1056700002210948FCF7BCF800BFFFF777FF701C58
:10568000C6B2082EDFDB15B9FFF7B6FF01E0FFF762
:1056900041FF204670BD0000000C0140001C01408D
:1056A00070B50446002525E000BFE00928B10122BD
:1056B00051021548FCF79CF805E000224FF40071F8
:1056C0001148FCF795F800BFFFF750FF00BF01221B
:1056D00002210E48FCF78CF800BFFFF747FF00BF20
:1056E000002202210948FCF783F800BF6006040E7F
:1056F000681CC5B2082DD7DB00BF01225102024849
:10570000FCF776F800BF70BD001C0140000C0140A2
:1057100010B500BF012251021048FCF769F800BF24
:1057200000BF012202210E48FCF762F800BFFFF71C
:105730001DFF00BF00224FF400710848FCF758F825
:1057400000BFFFF713FF00BF002202210448FCF74F
:105750004FF800BFFFF70AFF10BD0000001C01401A
:10576000000C014010B500BF00224FF400710C483E
:10577000FCF73EF800BFFFF7F9FE00BF012202214F
:105780000848FCF735F800BFFFF7F0FE00BF012224
:1057900051020348FCF72CF800BFFFF7E7FE10BDED
:1057A000001C0140000C014070B50024002500BF22
:1057B000012251021648FCF71BF800BFFFF7D6FE86
:1057C00000BF012202211348FCF712F800BFFFF7C7
:1057D000CDFE09E0601CC4B2FA2C03DDFFF7C2FF66
:1057E000012508E0FFF7C2FE4FF400710848FBF7FF
:1057F000F7FF0028EED100BF00BF002202210548BC
:10580000FBF7F6FF00BFFFF7B1FE284670BD0000B2
:10581000001C0140000C014010B5084B5968084BB2
:105820001B68084CB3FBF4F303FB00F200BF034B0F
:105830005B685B1A9342FAD310BD0000001000E0D1
:10584000A400002040420F0018B502460B46107815
:105850008DF8000050788DF80100002118E001EB70
:1058600041000E4C205C9DF80040A0420ED101EB9F
:1058700041000A4C204440789DF80140A04205D1E7
:1058800001EB4100054C2044807818BD481C81B2D2
:10589000034800888142E2DBFF20F6E71602010898
:1058A0004002010813B50C464FF6FF73012269460A
:1058B0000248FDF754FD00981CBD0000780200204E
:1058C00000B587B000BF00BF4848806940F0800045
:1058D000464988610846806900F08000019000BF59
:1058E00000BF00BF00BF00BF0846806940F08000D5
:1058F00088610846806900F08000019000BF00BF09
:1059000000BFC81403900120049005900320069066
:1059100003A93748FBF7C4FD4FF4806003900020D3
:105920000490012005900320069003A93048FBF75E
:10593000B7FDFFF721FE00BF00224FF400612C48A5
:10594000FBF756FF00BF1420FBF74CFD00BF012200
:10595000D1022748FBF74CFF00BF3220FBF742FD86
:1059600000208DF80800012202A900F047F9012269
:1059700002A9A42000F042F916208DF808000122A7
:1059800002A9802000F03AF90C208DF808000122CD
:1059900002A9882000F032F9022202A9A12000F019
:1059A0002FF89DF80800302803D19DF8090003283E
:1059B0000DD09DF80900012809D09DF809000228A2
:1059C00005D09DF8080070B99DF8090058B99DF8F8
:1059D00009009DF8082000EB022106A0FFF778F8E7
:1059E000002007B000BD0120FBE7000000100240CE
:1059F000001C01404354502049443A25780D0A00C8
:105A00002DE9F04106460F461546FFF781FE70204E
:105A1000FFF746FEFFF7C8FEF0B2FFF741FEFFF7C3
:105A2000C3FEFFF775FE7120FFF73AFEFFF7BCFEDD
:105A300000240BE0691EA14201D0012100E00021F9
:105A40000846FFF7FBFD3855601CC4B2AC42F1DBE1
:105A5000FFF788FEBDE8F0812DE9FC4107460020F4
:105A600001900024002661480078401C5F490870BE
:105A7000084600780A2190FBF1F201FB120018B1F0
:105A80005A4800780A2867DA012201A90220FFF7A4
:105A9000B7FF9DF8040000F00F0000285CD09DF8CF
:105AA000040000F00F0006287BDA9DF8040000F0E7
:105AB0000F014FF6FF70884085B2E84380B240F492
:105AC00040404B4988860420FBF78CFC00245AE0B8
:105AD0004748808E0121A1400840E0B3454931F894
